:020000040800F2
:1000000060FB0120AD010008953B00084536000863
:10001000913B0008150600081F740008000000004E
:100020000000000000000000000000002F54000845
:100030005307000800000000833C0008B15400088A
:10004000C7010008C7010008C7010008C701000870
:10005000C7010008C7010008C7010008C701000860
:10006000C7010008C7010008C7010008C701000850
:10007000C7010008C7010008C7010008C701000840
:10008000C7010008C7010008C70100080000000000
:10009000000000000000000000000000C701000890
:1000A000C7010008C7010008C7010008C701000810
:1000B000C7010008CD550008C7010008C7010008A6
:1000C000C7010008C7010008C7010008C7010008F0
:1000D000C7010008C7010008C701000800000000B0
:1000E000C7010008C7010008C701000800000000A0
:1000F000000000000000000000000000C701000830
:100100000000000099440008C7010008C70100086A
:1001100000000000000000000000000000000000DF
:1001200019060008C7010008C701000829060008D1
:10013000C7010008000000000000000000000000EF
:10014000000000000000000000000000D13B00089B
:10015000C701000839060008C7010008C7010008E8
:10016000C7010008C70100080000000000000000EF
:10017000000000000000000000000000000000007F
:1001800000000000C701000800000000000000009F
:10019000C7010008C7010008DFF80CD000F09AF88A
:1001A0000048004781AA000860FB012006488047FC
:1001B00006480047FEE7FEE7FEE7FEE7FEE7FEE74C
:1001C000FEE7FEE7FEE7FEE7695500089901000833
:1001D0002DE9F05F0546002092469B46884606467C
:1001E000814640241BE0284641464746224600F00F
:1001F00061F853465A46C01A914110D31146184629
:10020000224600F048F82D1A67EB01084F462246B7
:100210000120002100F03FF817EB00094E41201E9D
:10022000A4F10104DFDC484631462A464346BDE8D6
:10023000F09F10B5431A934209D28318881803E03F
:1002400010F8011D03F8011D521EF9D210BD40EA3D
:1002500001039B0703D009E008C9121F08C0042A44
:10026000FAD203E011F8013B00F8013B521EF9D22B
:1002700010BDD2B201E000F8012B491EFBD270473D
:100280000022F6E710B513460A4604461946FFF762
:10029000F0FF204610BD202A04DB203A00FA02F1CC
:1002A000002070479140C2F1200320FA03F3194364
:1002B00090407047202A04DB203A21FA02F0002106
:1002C000704721FA02F3D040C2F120029140084366
:1002D00019467047064C074D06E0E06840F0010300
:1002E00094E8070098471034AC42F6D3FFF758FF64
:1002F00020CE020840CE020870B58C1810F8015BC1
:1003000015F0070301D110F8013B2A1106D110F8AE
:10031000012B03E010F8016B01F8016B5B1EF9D1B2
:100320002B0705D40023521E0DD401F8013BFAE738
:1003300010F8013BCB1A921C03E013F8015B01F8A3
:10034000015B521EF9D5A142D8D3002070BD70B513
:100350000546AC6B206C00F0500050BB206C40F4A4
:10036000007020642068806800F04050E8B9A069FF
:10037000D8B92068C06A00F4700020B12068806895
:1003800000F4806088B92068406820F0200021686F
:100390004860206C20F480702064206C00F4805051
:1003A00018B9206C40F001002064204600F0D0FA1B
:1003B00003E0A06BC16C2846884770BD70B5054648
:1003C000AC6B40202064606C40F004006064204608
:1003D00000F0DAFA70BD70B50446A56B284600F04F
:1003E000C5FA70BD54494A6822F440324A604A68EE
:1003F00043681A434A600268526822F480720368B4
:100400005A6002685368026943EA022203685A602C
:100410000268526822F0407203685A6002685268AB
:1004200083681A4303685A600268926822F4006283
:1004300003689A6002689268C3681A4303689A6006
:100440003E4B826A9A4218D00268926822F070622B
:1004500003689A6002689268836A1A4303689A6024
:100460000268926822F0405203689A6002689268BB
:10047000C36A1A4303689A600BE00268926822F02C
:10048000706203689A600268926822F040520368C2
:100490009A600268926822F0020203689A60026819
:1004A0009368826943EA420203689A60026AA2B1D1
:1004B0000268526842F4006203685A600268526837
:1004C00022F4604203685A6002685368426A521E0E
:1004D00043EA423203685A6005E00268526822F437
:1004E000006203685A600268D26A22F470020368EC
:1004F000DA620268D36A828B521E43EA02520368B0
:10050000DA620268926822F4007203689A600268F4
:100510009368026B43EA422203689A600268926819
:1005200022F4806203689A6002689368426943EA31
:10053000822203689A607047002301400100000F87
:100540007047000010B504462146024802F0DCFA6C
:1005500010BD00005802002010B5044802F0E7FA70
:10056000042801D0012010BD0020FCE75802002023
:1005700010B5002400F014F8012801D0012010BDAE
:10058000064802F0E9FB044634B94FF40061034821
:1005900002F06DF900B101242046F0E75802002076
:1005A00008B5012000909DF8000008BD2DE9F0413C
:1005B00004460D461646002733462A46214604487F
:1005C00002F0F0FC00B101273846BDE8F0810000E0
:1005D00058020020012001490860704738000020BF
:1005E0002DE9F04104460D461646002733462A46BB
:1005F0002146044802F074FD00B101273846BDE8E9
:10060000F081000058020020012001490860704775
:100610003400002000BFFEE710B5024800F092FB56
:1006200010BD0000F801002010B5024800F08AFB60
:1006300010BD0000DC02002010B5024800F082FB73
:1006400010BD00003C030020014608781038182334
:10065000B0FBF3F20848805CC865032A05D9086836
:100660006FF30900001D886503E008686FF3090057
:100670008865886D704700002C060108014600203F
:100680008A6A8B69CBB932B1012A0DD0022A03D014
:10069000032A10D10EE000BFCB6A03F08073B3F1E0
:1006A000807F00D1012007E0CB6AB3F1C07F00D189
:1006B000012001E000E000BF34E08B69B3F5005F8A
:1006C0001AD132B1012A07D0022A03D0032A11D14C
:1006D0000AE000BF01200EE0CB6A03F08073B3F1A3
:1006E000807F00D1012006E0CB6AB3F1C07F00D14A
:1006F000012000E000BF15E032B1012A05D0022A36
:1007000004D0032A0CD103E000BF00BF012008E0A1
:10071000CB6A03F08073B3F1807F00D1012000E049
:1007200000BF00BF704730B50468246824F48024FB
:1007300005682C60046863608468402C04D10468F8
:10074000A2600468E16003E00468A1600468E260FC
:1007500030BD7047704730B504460D46002229462B
:10076000204600F001F830BDF0B503460125002415
:100770001148407A01281CDA00200F4E767A0E4F7D
:10078000B8553846467A001D40F82630001F467A94
:10079000083082553E46707A461C7E72044604F14B
:1007A000300008703A2048702F2088700020C870F0
:1007B00000252846F0BD00000012002038B5024692
:1007C0000020009000BF92F83C00012801D10220D7
:1007D00038BD012082F83C0000BF0868092816D9FE
:1007E0001068C0680C780A3C04EB44050724AC4050
:1007F000A0431468E0600C780A3C04EB4404886869
:10080000A0401468E46820431468E06013E01068B6
:1008100000690C7804EB44050724AC40A04314683D
:1008200020610C7804EB44048868A04014682469B3
:100830002043146820614868072817D21068406B6D
:100840000C79641E04EB84051F24AC40A04314689B
:100850006063088880B20C79641E04EB8404A040B5
:100860001468646B20431468606331E048680D28A5
:1008700017D21068006B0C79E41F04EB84051F2469
:10088000AC40A04314682063088880B20C79E41F50
:1008900004EB8404A0401468246B20431468206394
:1008A00016E01068C06A0C790D3C04EB84051F2427
:1008B000AC40A0431468E062088880B20C790D3C1B
:1008C00004EB8404A0401468E46A20431468E062E6
:1008D0001A4B1B4C1068A04206D10868122803D19D
:1008E000586840F480005860154C1068A0421ED132
:1008F000144C0868A04202D00868112817D1586823
:1009000040F4000058600F4C0868A0420FD10E4818
:1009100000680E4CB0FBF4F000EB8000400000904B
:1009200002E00098401E009000980028F9D100BF16
:10093000002082F83C0000BF00BF49E700230140CF
:100940000020014012000010A400002040420F00CF
:1009500010B504464FF48062024903480FF08DFD44
:1009600010BD0000B41A00209816002010B50446EF
:100970004FF48062024903480FF07FFD10BD000074
:10098000B4160020981600207047000070B5044689
:1009900000250CB9012070BD1549A06A884200D01D
:1009A00000BF206C30B90020606484F83C00204611
:1009B00000F020F8206C00F0100088B9206C20F4C2
:1009C000885040F0020020642046FFF70BFD002015
:1009D0006064206C20F0020040F00100206400E020
:1009E000012500BF002084F83C0000BF2846D2E764
:1009F0000100000F10B586B00446142101A8FFF7CE
:100A00003FFC2949206888424CD100BF002000905B
:100A10002648006840F48070244908600846006851
:100A200000F48070009000BF00BF00BF0020009065
:100A30001E481438006840F001001C491439086051
:100A40000846006800F00100009000BF00BF0220CF
:100A50000190032002900020039001A9144800F0A7
:100A60006BFB1448144908600020486000211248BC
:100A70008160C1604FF4806101614900416189007A
:100A800081614911C1614FF440310162002141622D
:100A900000F078FA08B1FFF75DFE00BF0648A063DA
:100AA000846300BF06B010BD0020014044380240FE
:100AB0000000024010640240F8010020F8B504462E
:100AC0000D4616460020009000BF94F83C00012817
:100AD00001D10220F8BD012084F83C0000BF20684D
:100AE000806800F00100A0B92068806840F0010033
:100AF000216888603C4800683C49B0FBF1F000EB9D
:100B00004000009002E00098401E009000980028ED
:100B1000F9D12068806800F00100002862D0206CC4
:100B200040F20161884340F480702064206840688E
:100B300000F4806028B1206C20F4005040F4805014
:100B40002064206C00F4805020B1606C20F006001E
:100B5000606401E00020606400BF002084F83C0075
:100B600000BF234F2348A16BC8632348A16B0864CF
:100B70002248A16BC8646FF02200216808602068D9
:100B8000406840F08060216848602068806840F4D8
:100B9000807021688860226802F14C0133462A4641
:100BA000A06B00F065FA786800F01F0058B9206863
:100BB000806800F0405028B92068806840F080408C
:100BC000216888600EE00E49206888420AD12068BA
:100BD000806800F0405028B92068806840F080406C
:100BE00021688860002075E7A400002040420F00C3
:100BF000002301404F030008D7030008BD0300088D
:100C00000020014070B50446002500BF94F83C0068
:100C1000012801D1022070BD012084F83C0000BFF2
:100C20002068806820F00100216888602068806862
:100C300000F00100A8B92068806820F48070216865
:100C40008860A06B00F014F805462068406820F02A
:100C5000806021684860206C20F4885040F00100DA
:100C6000206400BF002084F83C0000BF2846D2E783
:100C700070B50446A56D00F04FFB064694F83500AC
:100C8000022808D08020606500BF002084F834006E
:100C900000BF012070BD2068006820F016002168A8
:100CA00008602068406920F0800021684861206C5D
:100CB00008B9A06C28B12068006820F008002168FD
:100CC00008602068006820F00100216808600FE0DB
:100CD00000F022FB801B05280AD92020606500BF98
:100CE000002084F8340000BF032084F83500D1E7E9
:100CF0002068006800F001000028E9D194F85C1039
:100D00003F208840A86000BF002084F8340000BF66
:100D1000012084F835000020BCE7014691F8350039
:100D2000022803D08020486501207047052081F803
:100D300035000868006820F001000A681060002093
:100D4000F3E70000F8B50446002000908C480068E6
:100D50004FF41651B0FBF1F7A56D2E6894F85C10B6
:100D600008208840304098B12068006800F00400F6
:100D700070B12068006820F004002168086094F8D1
:100D80005C1008208840A860606D40F0010060653C
:100D900094F85C1001208840304068B120684069B8
:100DA00000F0800040B194F85C1001208840A860F9
:100DB000606D40F00200606594F85C10042088408B
:100DC000304068B12068006800F0020040B194F83B
:100DD0005C1004208840A860606D40F004006065ED
:100DE00094F85C1010208840304078B32068006888
:100DF00000F0080050B394F85C1010208840A86000
:100E00002068006800F4802080B12068006800F449
:100E1000002028B9206CC8B12046216C884715E015
:100E2000A06C98B12046A16C88470FE0206800684C
:100E300000F4807028B92068006820F0080021685C
:100E40000860206C10B12046216C884794F85C1033
:100E5000202088403040002865D02068006800F0DD
:100E6000100000285FD094F85C1020208840A86013
:100E700094F83500052828D12068006820F0160075
:100E8000216808602068406920F08000216848617E
:100E9000206C08B9A06C28B12068006820F0080018
:100EA0002168086094F85C103F208840A86000BF6B
:100EB000002084F8340000BF012084F83500206D44
:100EC00010B12046216D8847F8BD2068006800F405
:100ED000802080B12068006800F4002028B9606C90
:100EE00010B12046616C88471DE0E06BD8B1204608
:100EF000E16B884717E02068006800F4807068B9EB
:100F00002068006820F010002168086000BF002001
:100F100084F8340000BF012084F83500E06B10B184
:100F20002046E16B8847606D38B3606D00F00100CA
:100F3000F0B1052084F835002068006820F0010039
:100F40002168086000BF0098401C0090B84200D99A
:100F500005E02068006800F001000028F3D100BF20
:100F600000BF002084F8340000BF012084F8350061
:100F7000E06C10B12046E16C884700BFA4E7000098
:100F8000A40000202DE9F0410446002500F0C4F93A
:100F9000074614B90120BDE8F081606A00B100BFC6
:100FA00000BF002084F8340000BF022084F8350020
:100FB0002068006820F00100216808600AE000F065
:100FC000ABF9C01B052805D920206065032084F8F3
:100FD0003500E0E72068006800F001000028EED14D
:100FE0002068056821480540D4E901010843E1680B
:100FF00008432169084361690843A1690843E1691D
:101000000843216A08430543606A042803D1D4E9F0
:101010000B0108430543206805602068456925F0F9
:101020000705606A0543606A04280DD1A06A05437C
:10103000E06A48B12046FFF721FB28B140206065F7
:10104000012084F83500A6E7206845612046FFF7B7
:10105000FBFA064694F85C103F208840B060002000
:101060006065012084F83500002094E73F8010F08F
:101070002DE9F04704460D4616461F464FF000087E
:10108000D4F8589000BF94F83400012802D102200F
:10109000BDE8F087012084F8340000BF94F83500E3
:1010A00001282BD1022084F83500002060653B46E2
:1010B000324629462046FFF736FB94F85C103F2065
:1010C0008840C9F808002068006840F016002168D0
:1010D00008602068406940F0800021684861206C09
:1010E00028B12068006840F0080021680860206886
:1010F000006840F001002168086006E000BF0020A1
:1011000084F8340000BF4FF002084046C0E70000FA
:1011100070B5044600F000F906462546681C10B17B
:1011200004480078054400BF00F0F6F8801BA84290
:10113000FAD370BDA0000020F8B503460A4600258A
:10114000002400200021CDE0012606FA01F51668F2
:1011500006EA0504AC4273D15668022E02D05668E6
:10116000122E13D1CF0803F1200656F827004E07A0
:10117000F70E0F26BE40B0434F07FF0E1669BE4064
:101180003043CF0803F1200646F8270018684F00C7
:101190000326BE40B043167906F003064F00BE405A
:1011A000304318605668012E08D05668022E05D0CC
:1011B0005668112E02D05668122E13D198684F002F
:1011C0000326BE40B0434F00D668BE40304398600F
:1011D000586801268E40B0431679C6F300168E403B
:1011E00030435860D8684F000326BE40B0434F00DC
:1011F0009668BE403043D860566806F08056B6F117
:10120000805F6ED100BF00260096384E366846F4E7
:101210008046364F3E603E46366806F4804600966D
:1012200000BF00BF324E8F0856F827008E07370FD9
:101230000F26BE40B0432F4EB34202D1002615E028
:101240004FE02D4EB34201D101260FE02B4EB342A9
:1012500001D102260AE02A4EB34201D1032605E05D
:10126000284EB34201D1042600E007268F073F0F26
:10127000BE4030431E4E8F0846F82700224E30688D
:10128000A043566806F48036B6F5803F00D120436F
:101290001D4E3060361D3068A043566806F4003697
:1012A000B6F5003F00D12043174E361D3060361D85
:1012B0003068A043566806F48016B6F5801F00D14A
:1012C0002043114E08363060361D3068A043566802
:1012D00006F40016B6F5001F00D120430A4E0C3666
:1012E0003060491C1029FFF42FAFF8BD443802408C
:1012F000083801400000024000040240000802409B
:10130000000C024000100240003C01400AB1816123
:1013100001E00B04836170470148006870470000DA
:1013200098000020034800680349097808440149EF
:101330000860704798000020A000002010B50D48FC
:10134000006840F400700B4908600846006840F4EB
:10135000806008600846006840F4807008600320E0
:1013600000F0A0F8002000F007F800F02BF80020B3
:1013700010BD0000003C024070B504460E480078E5
:101380004FF47A71B1FBF0F00C490968B1FBF0F54C
:10139000284601F037FF08B1012070BD102C07D29C
:1013A00000222146501E00F03EF80548046001E08E
:1013B0000120F2E70020F0E7A0000020A4000020B8
:1013C0009C00002008B500BF002000900E48006877
:1013D00040F480400C4908600846006800F48040F2
:1013E000009000BF00BF00BF00200090081F0068F1
:1013F00040F08050091F08600846006800F08050E7
:10140000009000BF00BF08BD4438024000BF00F09C
:101410001F02012191404209920002F1E022C2F82C
:10142000001100BF70472DE9F05F80460D4616465B
:10143000002702F0B1FB074639462A46334601F041
:101440000700C0F1070ABAF1040F02D94FF0040AED
:1014500001E0C0F1070AD14600F1040ABAF1070F12
:1014600002D24FF0000A01E0A0F1030AD4464FF087
:10147000010A0AFA09FAAAF1010A0AEA020A0AFAB0
:101480000CFA4FF0010B0BFA0CFBABF1010B0BEA62
:10149000030B4AEA0B042146404602F085FBBDE8F7
:1014A000F09F000000BF00F00702064B19684FF6DE
:1014B000FF031940044B0B4343EA0221014B19601F
:1014C00000BF70470CED00E00000FA05024610680E
:1014D000416200207047F0B5034614460025002203
:1014E0001868426A21B942EA04401E68B06219E0F5
:1014F0001868806A02EB1042002508E0186800F5C1
:10150000827050F8250002EB1042681CC5B2481EDC
:10151000A842F3DC42EA0447186800F582704E1EC8
:1015200040F826700020F0BD10B50446D4F8EC0356
:1015300004F02EFC10BD70B504460D46C5EBC50386
:1015400004F1380101EB8301CA682946D4F8EC03A1
:1015500004F06EFB70BD70B504460D46C5EBC503C7
:1015600004F5FC7101EB8301CA682946D4F8EC0349
:1015700004F0CBFB70BD10B50446D4F8EC0304F0C6
:101580000AFC10BD70B504460D4605F080008028A9
:1015900008D105F07F00C0EBC00104F1380000EB7A
:1015A000810607E005F07F00C0EBC00104F5FC7088
:1015B00000EB810605F07F00307005F08000C00967
:1015C000707000BF94F8B803012801D1022070BDEB
:1015D000012084F8B80300BF3146206805F0C8F93F
:1015E00000BF002084F8B80300BF00BFEFE770B56C
:1015F00004460D4605F08000802808D105F07F00E4
:10160000C0EBC00104F1380000EB810605E0C5EB3A
:10161000C50104F5FC7000EB81060020B07005F0F8
:101620007F003070C5F3C010707000BF94F8B8032D
:10163000012801D1022070BD012084F8B80300BF49
:101640003146206805F008FC00BF002084F8B8038C
:1016500000BF00BFEFE770B504460D4600BF94F829
:10166000B803012801D1022070BD012084F8B8031D
:1016700000BF05F08000802805D105F07F012068BB
:1016800005F0FAFD02E0206805F0E0FD00BF002053
:1016900084F8B80300BF00BFE6E7024601F00F0080
:1016A000C0EBC00302F5FC7000EB8300008B80B23E
:1016B00070472DE9F04705460E4690461F464FF00D
:1016C000000906F08000802808D106F07F00C0EBFA
:1016D000C00105F1380000EB810407E006F07F004F
:1016E000C0EBC00105F5FC7000EB810406F07F0043
:1016F000207006F08000C0096070C4F80880E770B0
:10170000607808B12078E080022F01D1002020719C
:1017100000BF95F8B803012802D10220BDE8F08788
:10172000012085F8B80300BF2146286805F03EF87F
:1017300000BF002085F8B80300BF4846EEE72DE95A
:10174000F04104460E461746984606F07F00C0EB6F
:10175000C00104F5FC7000EB8105EF60C5F8148052
:101760000020A861687006F07F00287020690128B9
:1017700000D12F6106F07F0028B9227C294620681D
:1017800005F072FA04E0227C2946206805F0EEFBA1
:101790000020BDE8F08170B504460D4605F08000DC
:1017A000802808D105F07F00C0EBC00104F13800AB
:1017B00000EB810605E0C5EBC50104F5FC7000EB0C
:1017C00081060120B07005F07F003070C5F3C010B5
:1017D000707000BF94F8B803012801D1022070BDD9
:1017E000012084F8B80300BF3146206805F078FB7B
:1017F00005F07F0028B9217C04F56F72206805F0A0
:1018000009FB00BF002084F8B80300BF00BFE6E773
:101810002DE9F04104460E461746984606F07F0033
:10182000C0EBC00104F1380000EB8105EF60C5F8A2
:1018300014800020A8610120687006F07F002870E5
:101840002069012800D12F6106F07F0028B9227C91
:101850002946206805F008FA04E0227C2946206821
:1018600005F084FB0020BDE8F08100002DE9FC5F5D
:10187000044626684FF0000B0020019081460025A9
:1018800000908046F74F206805F030FD00286CD1AD
:10189000206805F063FD08B9BDE8FC9F206805F0ED
:1018A0005DFD00F00200022805D12068406900F0CB
:1018B000020021684861206805F050FD00F4002016
:1018C000B0F5002F7ED10025206805F01DFD0190A8
:1018D00075E0019800F0010000286CD0E9B22068A2
:1018E00005F031FD814609F00100E8B3012106F55C
:1018F000306000EB45108160206901282BD1C5EBD9
:10190000C50104F5FC7000EB8100816806F53060CC
:1019100000EB45100069C0F31200091AC5EBC502BF
:1019200004F5FC7000EB82008161C5EBC50104F594
:10193000FC7000EB8100C5EBC502C16804F5FC70CA
:1019400000EB820080680144C5EBC50204F5FC7021
:1019500000EB8200C160E9B22046FFF7FCFD206980
:10196000012811D105B901E00EE0B2E2C5EBC501D5
:1019700004F5FC7000EB8100406928B904F56F7232
:101980000121206805F046FA09F00800082808D16E
:10199000204600F0E7FB082106F5306000EB45101B
:1019A000816009F01000102805D1102106F5306083
:1019B00000EB451081606D1C019840080190019872
:1019C000002800E000E084D1206805F0C7FC00F4A6
:1019D0008020B0F5802F7DD1206805F08CFC01902F
:1019E000002585E0019800F0010000287CD0E9B2D4
:1019F000206805F092FC814609F00100F0B3012057
:101A0000A840009040F6340080590099884340F681
:101A100034018851012106F5106000EB451081600A
:101A20002069012815D1C5EBC50104F1380000EB90
:101A30008100C5EBC502C16804F1380000EB8200EB
:101A400080680144C5EBC50204F1380000EB820058
:101A5000C160E9B22046FFF76EFD2069012810D170
:101A600065B9C5EBC50104F1380000EB81004069A0
:101A700020B904F56F720121206800E001E005F053
:101A8000C9F909F00800082805D1082106F51060F9
:101A900000EB4510816009F01000102805D11021DD
:101AA00006F5106000EB4510816009F04000402809
:101AB00005D1402106F5106000EB4510816009F06A
:101AC0000200022805D1022106F5106000EB451046
:101AD000816001E010E007E009F08000802803D178
:101AE0002946204602F07CF86D1C019840080190C0
:101AF000019800287FF476AF206805F02FFC00F0F5
:101B00000040B0F1004F10D140F60400805920F0A1
:101B1000010140F604008151204600F0FCFA2068E3
:101B2000406900F0004021684861206805F016FC1B
:101B300000F40060B0F5006F0ED140F60800805947
:101B400000F0010010B1204600F030FB2068406931
:101B500000F4006021684861206805F0FFFB00F494
:101B60008050B0F5805F5CD140F60400805920F0D1
:101B7000010140F6040081511021206805F07CFB32
:101B80004FF0000B0CE0FF2106F5106000EB4B104E
:101B9000816006F5306000EB4B1081600BF1010BAA
:101BA00060685845EFD84FF0FF3140F6180081517A
:101BB000001D805940F0011140F61C008151206B3E
:101BC00070B1D6F8840840F00B01C6F8841840F6CE
:101BD0004400805940F00B0140F6440081510EE072
:101BE00040F61400805940F00B0140F6140081517A
:101BF000001F805940F00B014FF401608151D6F86D
:101C0000000820F4FE60C6F80008217C04F56F721D
:101C1000206805F0FFF82068406900F480502168D2
:101C20004861206805F09AFB00F40050B0F5005FB1
:101C30006FD1206804F01CFE2068C06820F470504A
:101C40002168C860206805F02FFB68B90021E160B9
:101C50004FF4007161612068C06840F41050216841
:101C6000C86084E00095BA0A0321E1604021616107
:101C700000F076FB07469848874209D39748874289
:101C800006D22068C06840F470502168C8606EE0D9
:101C90009248874209D39248874206D22068C0689A
:101CA00040F460502168C86061E08D48874209D3E4
:101CB0008C48874206D22068C06840F450502168A2
:101CC000C86054E08748874209D38748874206D2D4
:101CD0002068C06840F440502168C86047E08248EE
:101CE000874209D38148874206D22068C06840F401
:101CF00030502168C8603AE07C4887420AD37C486B
:101D0000874207D22068C06840F420502168C8602C
:101D10002DE035E07648874209D37648874206D2DF
:101D20002068C06840F410502168C8601FE0714806
:101D3000874209D37048874206D22068C06840F4C1
:101D400000502168C86012E06B48874209D36B4895
:101D5000874206D22068C06840F4E0502168C8601D
:101D600005E02068C06840F4C0502168C860204683
:101D700000F0B8F92068406900F40050216848611B
:101D8000206805F0EBFA00F01000102845D120681B
:101D9000806920F0100021688861D6F8208008F062
:101DA0000F00C0EBC00104F5FC7000EB810AC8F322
:101DB000434002281AD147F6F07008EA000030B319
:101DC000C8F30A123046DAF80C1005F0CDFAC8F361
:101DD0000A11DAF80C000844CAF80C00C8F30A111A
:101DE000DAF818000844CAF8180010E0C8F34340B5
:101DF00006280CD1082204F56F71304605F0B4FABC
:101E0000C8F30A11DAF818000844CAF81800206864
:101E1000806940F0100021688861206805F09EFA12
:101E200000F00800082808D1204600F07BF920685F
:101E3000406900F0080021684861206805F08EFACA
:101E400000F48010B0F5801F09D1E9B2204600F0FF
:101E500057F82068406900F48010216848612068C4
:101E600005F07CFA00F40010B0F5001F09D1E9B2CA
:101E7000204600F04EF82068406900F40010216808
:101E80004861206805F06AFA00F08040B0F1804FA8
:101E900008D12046FFF748FB2068406900F08040E9
:101EA00021684861206805F059FA00F00400042810
:101EB0000FD12068D0F8048008F00400042802D173
:101EC0002046FFF758FB2068406840EA0800216878
:101ED000486000BFE0E40000C0ACD800C0E1E4000E
:101EE0000024F40080730601A0491A01002D31017D
:101EF00040A44C0100366E0120ABA6010048E80169
:101F000070B504460D462946D4F8EC0303F0CEFF25
:101F100070BD70B504460D462946D4F8EC0303F0B5
:101F2000C8FF70BD30B58BB00446002514B9012040
:101F30000BB030BD032084F8B903204600F094F8BC
:101F4000206804F089FE282204F110016846FEF79B
:101F500070F994E80F0004F0ADFC0021206805F052
:101F600014FA002530E00121C5EBC50204F1380068
:101F700000EB82004170C5EBC50204F1380000F8A7
:101F80002250C5EBC50200EB8200C5800021C5EBE5
:101F9000C50204F1380000EB8200C170C5EBC50238
:101FA00004F1380000EB82008160C5EBC50204F14A
:101FB000380000EB8200C160C5EBC50204F13800B7
:101FC00000EB820041616D1C0F2DCCD3002536E063
:101FD0000021C5EBC50204F5FC7000EB82004170E6
:101FE000C5EBC50204F5FC7000F82250C5EBC50234
:101FF00004F1380000EB8200C580C5EBC50204F592
:10200000FC7000EB8200C170C5EBC50204F5FC70EA
:1020100000EB82008160C5EBC50204F5FC7000EBAB
:102020008200C160C5EBC50204F5FC7000EB8200C4
:102030004161206800F5827040F825106D1C0F2D5D
:10204000C6D3282204F110016846FEF7F2F894E89E
:102050000F0004F031FD012084F8B903206804F07A
:102060001CFD002064E7000010B586B0044620681F
:10207000B0F1A04F30D14FF4C05001900220029037
:1020800000200390032004900A20059001A9134822
:10209000FFF752F800BF1248006840F08000104976
:1020A000086000BF002000900D481030006840F428
:1020B00080400B49103108600846006800F48040F9
:1020C000009000BF00BF00BF002211464320FFF771
:1020D000AAF94320FFF79AF906B010BD00000240AC
:1020E0003438024070B504460125E06810B102287A
:1020F00004D101E0002503E0012501E0012500BF36
:1021000000BF2946D4F8EC0303F072FFD4F8EC03C7
:1021100003F034FF70BD10B50446D4F8EC0303F0AF
:102120004FFF10BD10B50446D4F8EC0303F04FFF89
:1021300010BD70B504460D4600BF94F8B8030128E1
:1021400001D1022070BD012084F8B80300BF2946E8
:10215000206805F032F900BF002084F8B80300BF02
:1021600000BFEFE710B5044604F56F71D4F8EC0337
:1021700003F064FF10BD10B5044600BF94F8B80327
:10218000012801D1022010BD012084F8B80300BF4E
:10219000206804F073FC206805F050F800BF0020B0
:1021A00084F8B80300BF00BFEDE7000010B5044697
:1021B000D4F8EC0303F0B9FF2068D0F8000E40F02B
:1021C00001002168C1F8000E206A28B103480068A8
:1021D00040F006000149086010BD000010ED00E06D
:1021E00070B504460D460CB9012070BD5848006812
:1021F00000F00F00A84209D255490D70084600684A
:1022000000F00F00A84201D00120EEE7207800F096
:10221000020002281DD1207800F00400042805D116
:102220004C48006840F4E0504A490860207800F0CB
:102230000800082805D14748006840F46040454937
:1022400008604448006820F0F000A1680843414954
:102250000860207800F00100A8B36068012807D169
:102260003C4808380068C0F34040B8B90120BCE7DA
:102270006068022802D06068032807D13548083812
:102280000068C0F3406048B90120AEE73148083823
:102290000068C0F3400008B90120A6E72D48006897
:1022A00020F00300616808432A490860FFF734F80A
:1022B000064609E0FFF730F8801B41F2883188427A
:1022C00002D9032091E707E02248006800F00C00E3
:1022D0006168B0EB810FEDD11D48006800F00F0080
:1022E000A84209D91A490D700846006800F00F008D
:1022F000A84201D0012078E7207800F004000428EB
:1023000007D11448006820F4E050E16808431149FF
:102310000860207800F00800082808D10D480068FF
:1023200020F46040216940EAC1000A49086000F0D9
:102330001DF808490968C1F30311074A515CC840F8
:10234000064908600020FFF717F800204DE700005D
:10235000003C02400838024034060108A400002076
:102360000148006870470000A40000202DE9F047F4
:10237000002400250026A1462548006800F00C0036
:1023800020B1042805D008283AD105E0DFF8849070
:1023900039E0DFF8849036E01D48001F006800F047
:1023A0003F041B48001F006800F4800078B11A4801
:1023B0001749091F0968C1F38811A0FB0170014684
:1023C000224600233846FDF703FF05460EE011487C
:1023D0000F49091F0968C1F38811A0FB017001466C
:1023E000224600233846FDF7F3FE05460848001F45
:1023F0000068C0F30140401C4600B5FBF6F902E05E
:10240000DFF8109000BF00BF4846BDE8F08700002D
:10241000083802400024F40000127A00F8B504469F
:102420000CB90120F8BD207800F00100002874D01C
:10243000F948006800F00C0004280DD0F648006848
:1024400000F00C00082813D1F348001F006800F4C6
:102450008000B0F5800F0BD1EF4808380068C0F35A
:102460004040002859D06068002856D10120D9E7A3
:1024700000BF6068B0F5803F08D1E74808380068C1
:1024800040F48030E449083908601EE06068B0F527
:10249000A02F0DD1E0480838006840F48020DE49C4
:1024A000083908600846006840F4803008600CE095
:1024B000D9480838006820F48030D74908390860C6
:1024C0000846006820F48020086000BF606890B172
:1024D000FEF722FF054606E0FEF71EFF401B6428BC
:1024E00001D903209EE7CC4808380068C0F340407B
:1024F0000028F1D011E0FEF70FFF054606E0FEF7D9
:102500000BFF401B642801D903208BE7C248083821
:102510000068C0F340400028F1D1207800F00200AC
:1025200002285FD1BC48006800F00C0058B1BA48DE
:10253000006800F00C0008281CD1B748001F006894
:1025400000F48000B0B9B44808380068C0F3400017
:1025500020B1E068012801D0012063E7AE480838C7
:10256000006820F0F800216940EAC100AA49083952
:10257000086037E0E06800B30120A8490860FEF772
:10258000CBFE054606E0FEF7C7FE401B022801D938
:10259000032047E7A04808380068C0F3400000283F
:1025A000F1D09D480838006820F0F800216940EA21
:1025B000C10099490839086014E000209749086073
:1025C000FEF7AAFE054606E0FEF7A6FE401B02281F
:1025D00001D9032026E7904808380068C0F340007E
:1025E0000028F1D1207800F0080008282CD160697B
:1025F000A8B101208A490860FEF78EFE054606E074
:10260000FEF78AFE401B022801D903200AE7824810
:102610006C300068C0F340000028F1D014E00020C6
:102620007F490860FEF778FE054606E0FEF774FE77
:10263000401B022801D90320F4E677486C3000687B
:10264000C0F340000028F1D1207800F004000428F5
:1026500070D1002670483830006800F0805090B982
:1026600000BF002000906C483830006840F0805077
:102670006949383108600846006800F080500090D1
:1026800000BF00BF01266748006800F48070B0B941
:102690006448006840F4807062490860FEF73CFEC0
:1026A000054606E0FEF738FE401B022801D903204C
:1026B000B8E65C48006800F480700028F2D000BFE3
:1026C000A068012808D154486830006840F0010033
:1026D0005149683108601DE0A06805280DD14E48B9
:1026E0006830006840F004004B49683108600846D3
:1026F000006840F0010008600CE04748683000685E
:1027000020F001004449683108600846006820F064
:102710000400086000BFA068A8B1FEF7FDFD0546F3
:1027200009E0FEF7F9FD401B41F28831884202D9E9
:10273000032077E626E0384868300068C0F34000A0
:102740000028EED013E0FEF7E7FD054608E0FEF7AF
:10275000E3FD401B41F28831884201D9032061E644
:102760002D4868300068C0F340000028EFD1012EEA
:1027700007D129483830006820F080502649383188
:10278000086000BFA069B8B32348006800F00C00DF
:1027900008285ED0A069022846D100201F4908669B
:1027A000FEF7BAFD054606E0FEF7B6FD401B02281F
:1027B00001D9032036E6184808380068C0F34060A5
:1027C0000028F1D1D4E907010843616A40EA811188
:1027D0000122A06AC2EB500041EA00412C20005DBA
:1027E00041EA00600C49091F086001200B49086696
:1027F000FEF792FD054607E02DE0FEF78DFD401B3C
:10280000022801D903200DE6034808380068C0F308
:1028100040600028F1D01EE0083802400000474226
:10282000800E47420070004000200C490866FEF709
:1028300073FD054606E0FEF76FFD401B022801D937
:102840000320EFE506480068C0F340600028F2D19D
:1028500001E00120E6E50020E4E500000000474239
:102860000038024010B50446FDF76AFE10BD70B591
:102870008AB004460D460026032084F83400606CBC
:10288000032820D0B5F5805F04D1A06B40F08050C4
:10289000A0631CE0B5F5006F07D1204602F096FC5E
:1028A0000646A06B3043A06311E03DB9204602F01C
:1028B00058FC0646A06B3043A06308E0A06B40F0D4
:1028C0000060A06303E0A06B40F08050A063A06BA9
:1028D00040B140F2FF5021688863012084F8340041
:1028E0000AB070BD60680490A0680590E06806902A
:1028F000079560690890A069099007A807C88DE846
:102900000700206804A90EC901F0CEFD012084F85B
:1029100034000020E4E7704730B503460022586ECB
:10292000020E90090870C2F38300487002F00300A1
:102930008870586EC0F30742CA70B3F86400C0F3E1
:1029400007220A7193F864204A71986E020E4FF6BE
:10295000FF7000EA0210C880986EC0F30742C88872
:1029600040EA1210C88002F00F0008726820C05AB6
:10297000C0F30722D0094872C2F380108872C2F3F4
:102980004010C872C2F30010087300204873586CDE
:1029900000283ED19007000D08616820C25C0869DC
:1029A00040EA82000861D86E020E086940EA92107F
:1029B0000861C2F3C200087502F007004875D86EBE
:1029C000C0F3074250098875C2F38200C8759007AA
:1029D000400F08766C20C05AC0F30722087E40EAF8
:1029E000D21008760869401C58650C7E586DA41CEE
:1029F0000125A540684358650C7A0120A0409865E0
:102A0000D3E91504640A6043D8654FF400741C666A
:102A100030E0586C012821D16820C25C9006800A01
:102A20000861D86E020E086940EA02200861D86E7B
:102A3000C0F307420869104308616C20C05AC0F314
:102A400007220869441C4FF48060A4FB0004586509
:102A5000D8654FF400749C651C660BE040F2FF5093
:102A60001C68A063986B40F080509863012083F845
:102A7000340030BDC2F3801001F8190F9006400EEB
:102A800048706C20C25C487840EAD210487002F06E
:102A90007F008870186F020ED009C870C2F3411011
:102AA0000871C2F3820048719007000F8871186F97
:102AB000C0F30742887940EA92108871C2F340104F
:102AC000C8710020087202F0010048727020C05ADC
:102AD000C0F30722D0098872C2F38010C872C2F313
:102AE00040100873C2F300104873C2F3810088736A
:102AF00002F00300C8737020C25C50080874012003
:102B0000487419390020B4E70246506C0860906C94
:102B10004860D06C8860106DC860506D0861906D21
:102B20004861D06D8861106EC86100207047F8B5AB
:102B3000044604260025002000906946204602F045
:102B4000F7FA054615B1A06B2843A0630098C0F3BF
:102B500043263046F8BD000070B5044600252068C5
:102B6000406BC0F30020002863D04FF480702168D0
:102B700088632068C06B40F23A3188432168C8639B
:102B8000206B00F0080048B3206B00F0020018B979
:102B9000206B00F0200050B1206801F04DFE05468A
:102BA0002DB1A06B2843A0632046FFF7B4FE40F28E
:102BB000FF5021688863012084F83400206B00F006
:102BC000010018B9206B00F0020018B1204600F097
:102BD0007DFABCE0204600F07EFAB8E0206B00F001
:102BE00080000028F5D0206B00F0200050B1206854
:102BF00001F022FE05462DB1A06B2843A0632046BC
:102C0000FFF789FE206B00F001000028E1D1206B66
:102C100000F002000028DCD12068C06A20F0080023
:102C20002168C862012084F83400204600F053FA7D
:102C30008DE02068406BC0F3803038B14FF48040A5
:102C400021688863204602F0F6FA80E02068406B35
:102C5000C0F3C03038B14FF400402168886320468B
:102C600002F053FA73E02068406B40F23A210840CA
:102C700008B1012000E00020002868D02068406BE7
:102C8000C0F3400018B1A06B40F00200A0632068C0
:102C9000406BC0F3C00018B1A06B40F00800A06307
:102CA0002068406BC0F3401018B1A06B40F02000CA
:102CB000A0632068406BC0F3001018B1A06B40F017
:102CC0001000A0632068406BC0F3402018B1A06BD7
:102CD00040F00800A06340F2FF702168886320681C
:102CE000C06B40F23A3188432168C863206B00F022
:102CF000800010B3206C50B11548216C0865206C21
:102D0000FEF70BF810B1206C02F04EF81FE0E06BFC
:102D100050B11048E16B0865E06BFDF7FEFFB0B104
:102D2000E06B02F012F812E00020A063012084F8AA
:102D300034002046FFF796FD09E0206B00F0080004
:102D400028B1012084F834002046FFF7E4FD70BD6F
:102D5000A94D00084B4D000810B504460CB90120E0
:102D600010BD94F8340020B900202077204600F0F0
:102D700051F8032084F83400204600F009F80020C0
:102D8000A0632063012084F834000020E8E70000FD
:102D900030B589B0044600250020039004900590CA
:102DA000069007907620089006A807C88DE80700CF
:102DB000206803A90EC901F077FB002014490860C0
:102DC000206801F08BFB01201149A039C1F8A00057
:102DD0000220FEF79DF9204602F020F9054645B194
:102DE000012084F83400A06B2843A063012009B0BF
:102DF00030BD204602F094F805463DB1012084F82C
:102E00003400A06B2843A0630120F0E70020EEE728
:102E1000A080254210B586B00446142101A8FDF714
:102E20002FFA5949206888427ED100BF00200090C7
:102E30005648006840F4006054490860084600683D
:102E400000F40060009000BF00BF00BF00200090B1
:102E50004E481438006840F001004C4914390860AD
:102E60000846006800F00100009000BF00BF00BFEE
:102E7000002000900846006840F002000860084604
:102E8000006800F00200009000BF00BF4FF45070D7
:102E900001900220029000200390032004900C2057
:102EA000059001A93A48FEF747F948F2A0000190C1
:102EB0000220029000200390032004900C20059033
:102EC00001A93448FEF738F93348344908604FF017
:102ED00000604860002131488160C1604FF480612A
:102EE000016189004161890081612021C1614FF444
:102EF0004031016204214162032181624FF40001EB
:102F0000C16289100163FEF73DF808B1FDF722FCAC
:102F100000BF2248E063846300BF1F484830204957
:102F200008604FF0006000E02CE0486040211C4841
:102F300081600021C1604FF48061016189004161BD
:102F4000890081612021C1614FF440310162042177
:102F50004162032181624FF40001C1628910016363
:102F6000FEF710F808B1FDF7F5FB00BF0C48206430
:102F7000846300BF002211463120FEF754FA31204D
:102F8000FEF744FA06B010BD002C01404438024060
:102F9000000002400004024058640240DC020020AD
:102FA0003C0300202DE9F04186B0044688461646D1
:102FB0001D460027B8F1000F07D1A06B40F000605C
:102FC000A063012006B0BDE8F08194F83400012828
:102FD00073D10020A0637119E06D814205D9A06B07
:102FE00040F00070A0630120ECE7032084F8340077
:102FF00000202168C8622068C06B40F49570216889
:10300000C8632F48E16BC8632E48E16BC864002099
:10301000E16B08656A029308226802F1800142466A
:10302000E06BFEF725F8012027490860606C012855
:1030300000D076024FF0FF3000906802019090209F
:103040000290022003900020049001200590694620
:10305000206801F0F7F94FF40071206801F09CFA44
:10306000074657B140F2FF5021688863A06B384390
:10307000A063012084F83400A4E7012D07D9822041
:1030800020633146206801F0F3FA074606E081200C
:1030900020633146206801F008FB07465FB140F22B
:1030A000FF5021688863A06B3843A063012084F837
:1030B000340087E701E0002084E7022082E7000077
:1030C000054D0008A94C00088C85254210B5044622
:1030D000FDF780FA10BD10B50446FDF795FA10BD56
:1030E0002DE9F04186B00446884616461D46002765
:1030F000B8F1000F07D1A06B40F00060A063012081
:1031000006B0BDE8F08194F83400012872D10020A7
:10311000A0637119E06D814205D9A06B40F0007089
:10312000A0630120ECE7032084F83400002021682C
:10313000C8622068C06B40F01A002168C8632E483E
:10314000216CC8632D48216CC8640020216C08657F
:10315000606C012800D076024FF40071206801F005
:103160001BFA074657B140F2FF5021688863A06BF5
:103170003843A063012084F83400C1E7012D07D94A
:10318000A02020633146206801F074FB074606E06A
:10319000902020633146206801F089FB074657B133
:1031A00040F2FF5021688863A06B3843A063012080
:1031B00084F83400A4E701201149086069028B08F3
:1031C000216801F180024146206CFDF751FF4FF06C
:1031D000FF30009068020190902002900020039040
:1031E0000490012005906946206801F02BF9002029
:1031F00086E7FFE7022083E7974D0008A94C000807
:103200008C85254270B504462546681EB0F1807F46
:1032100001D301200FE0681E4FF0E02148610F212B
:103220004FF0FF3000F0C0FC00204FF0E02188613B
:1032300007200861002070BD70477047024600BF3C
:1032400092F83800012801D102207047012082F84D
:10325000380000BF022082F839001068406820F072
:10326000700013685860106840680B681843136852
:1032700058601068806820F08000136898601068BB
:1032800080684B68184313689860012082F8390001
:1032900000BF002082F8380000BF00BFD5E710B59E
:1032A00004460CB9012010BD94F8390028B900205B
:1032B00084F83800204600F00DF8022084F8390028
:1032C000211D206802F08AF9012084F839000020CD
:1032D000E9E7000038B504460E492068884217D156
:1032E00000BF002000900C48006840F002000A492E
:1032F00008600846006800F00200009000BF00BFB0
:10330000002211461D20FEF78EF81D20FEF77EF8E4
:1033100038BD000000040040403802400146022051
:1033200081F839000868006840F001000A68106000
:10333000012081F83900002070470146022081F801
:10334000390000BF0868006A41F21112104050B9FC
:103350000868006A9210104028B90868006820F0D8
:1033600001000A68106000BF012081F839000020C8
:1033700070472DE9F04104460D46002600BF94F841
:103380003800012802D10220BDE8F081012084F834
:10339000380000BF022084F839002068866826F0D3
:1033A000770626F47F4620688660286850283BD040
:1033B0000CDC202860D004DC002853D0102865D114
:1033C00055E030285DD0402860D141E0602835D0FC
:1033D00070280DD0B0F5805F03D0B0F5005F55D1F7
:1033E00015E02068806820F00700216888604EE0C2
:1033F000D5E902136A68206802F048F920688668F7
:1034000026F0770646F07706206886603FE0D5E92B
:1034100002136A68206802F039F92068806840F475
:1034200080402168886032E0EA686968206802F0BC
:1034300043F95021206802F035F928E0EA6869680C
:10344000206802F04EF96021206802F02BF91EE09E
:10345000EA686968206802F02FF94021206802F0CC
:1034600021F914E00021206802F01CF90FE010217E
:10347000206802F017F90AE02021206802F012F912
:1034800005E03021206802F00DF900E000BF00BF28
:10349000012084F8390000BF002084F8380000BF04
:1034A00000BF71E7704710B5044620680069C0F39B
:1034B0004000D8B12068C068C0F34000B0B16FF0E0
:1034C000020021680861012020762068806900F0F0
:1034D000030018B12046FFF7E5FF05E0204600F0A5
:1034E000ADF8204600F0ABF8002020762068006997
:1034F000C0F38000D8B12068C068C0F38000B0B1CC
:103500006FF004002168086102202076206880693D
:1035100000F4407018B12046FFF7C4FF05E02046D4
:1035200000F08CF8204600F08AF800202076206811
:103530000069C0F3C000D8B12068C068C0F3C00003
:10354000B0B16FF00800216808610420207620687F
:10355000C06900F0030018B12046FFF7A3FF05E0A3
:10356000204600F06BF8204600F069F80020207635
:1035700020680069C0F30010D8B12068C068C0F3AB
:103580000010B0B16FF010002168086108202076AB
:103590002068C06900F4407018B12046FFF782FF30
:1035A00005E0204600F04AF8204600F048F80020E8
:1035B00020762068006900F0010058B12068C068DA
:1035C00000F0010030B16FF0010021680861204671
:1035D00000F036F820680069C0F3C01058B12068C8
:1035E000C068C0F3C01030B16FF08000216808617E
:1035F0002046FFF721FE20680069C0F3801058B113
:103600002068C068C0F3801030B16FF040002168BE
:103610000861204600F015F820680069C0F34010EA
:1036200058B12068C068C0F3401030B16FF020007E
:10363000216808612046FFF700FE10BD7047704703
:103640007047704700BFFEE770B50546D5F81842D1
:103650004FF40670005D48B94FF40570005928B169
:10366000607A18B90121284602F01FFD8121284601
:1036700002F01BFD607A022806D11F2304F50372B5
:103680000121284602F049FC70BD000070B50546D6
:10369000D5F818424FF4047001594FF40C700151E1
:1036A0004FF4057001594FF40D7001510121284666
:1036B00002F0A0FB1F2811D12749D4F80C02884240
:1036C0000CD140F21920005D012807DC4815005D8F
:1036D000012803DB4815005D10280DDD40F219209C
:1036E000015D20230522284600F09DFD0220607226
:1036F0002846FFF7A9FF2EE040F21920015D04F2F1
:103700001B22284600F02CFB00280BDA207A052823
:1037100004D10121284600F0B7F81CE02846FFF745
:1037200093FF18E0207A022815D0207A012812D0C1
:10373000207A03280FD06089002806DD628904F111
:103740000C01284600F0BEF805E0608918B9002198
:10375000284600F099F870BD5553424370B50646AF
:103760000D46D6F81842607A022806D181213046EB
:1037700002F09BFC002060720AE005F080008028C7
:1037800006D1607A012803D00121304600F07CF890
:1037900070BD70B505460E46D5F81842207A02284D
:1037A00004D0032812D0042815D10EE040F21920CD
:1037B000015D04F21B22284600F0D2FA002803DA49
:1037C0000121284600F060F806E000BF00212846ED
:1037D00000F05AF800E000BF00BF70BD70B50546AC
:1037E0000E46D5F81842207A10B1012813D103E013
:1037F0002846FFF74BFF0FE040F21920015D04F26D
:103800001B22284600F0ACFA002803DA01212846E2
:1038100000F03AF800E000BF00BF70BDD0F8181209
:1038200000220A72704770B50546D5F8184200208C
:103830002072607284F85D0284F85C02D5F81C0284
:103840000168002088470121284602F0B1FA812151
:10385000284602F0ADFA1F2304F503720121284621
:1038600002F05BFB70BD70B50546D5F8184200202C
:103870002072012060721F2304F503720121284683
:1038800002F04BFB70BD000070B505460E46D5F842
:1038900018420B48C4F82C024FF40E700655002055
:1038A00020720D2304F50B728121284602F047FC9B
:1038B0001F2304F503720121284602F02EFB70BD80
:1038C000555342532DE9F04106460F461546D6F8AA
:1038D00018424FF405700059A84203D24FF4057006
:1038E000005900E0284685B24FF40D700059411B85
:1038F0004FF40D7001510021001D0155042020726C
:103900002B463A468121304602F019FCBDE8F08191
:103910001FB50020009001900290039014481549B3
:1039200008604FF4803048600021124881600161D6
:10393000816101624FF08051C162491081620021B2
:10394000C1600121C16101634161FDF71FF808B148
:10395000FCF700FF012000900190002002906946D2
:103960000448FCF72BFF08B1FCF7F4FE1FBD000074
:1039700000200140B001002008B500BF00200090E9
:103980001248006840F4800010490860084600684A
:1039900000F48000009000BF00BF002211463820D4
:1039A000FDF741FD3820FDF731FD002211463B2097
:1039B000FDF739FD3B20FDF729FD0022114645208A
:1039C000FDF731FD4520FDF721FD08BD30380240EF
:1039D00010B503490348FCF7BEFE0349087010BD4B
:1039E0003D000020F40501083C00002000B587B030
:1039F000142102A8FCF744FC00BF002001903048CD
:103A0000006840F004002E4908600846006800F095
:103A10000400019000BF00BF00BF002001900846D5
:103A2000006840F0800008600846006800F08000F0
:103A3000019000BF00BF00BF002001900846006851
:103A400040F0010008600846006800F001000190A5
:103A500000BF00BF00BF002001900846006840F092
:103A6000020008600846006800F00200019000BFF4
:103A700000BF00224FF4C0411248FDF747FC00226E
:103A800043F201011048FDF741FC4FF4C0400290A1
:103A90000120039000200490059002A90948FDF739
:103AA0004BFB43F2010002900120039000200490A0
:103AB000059002A90448FDF73FFB07B000BD0000D8
:103AC000303802400008024000040240064807491E
:103AD000086000204860002104488160C1600161E5
:103AE0004161816170470000002C014058020020B4
:103AF00000B587B0002003900490059006900190D7
:103B000002901448144908600020486000211248BF
:103B1000816042F6DF61C16000210161FFF7BFFBF8
:103B200008B1FCF717FE4FF48050039003A90A4830
:103B3000FFF71FFC08B1FCF70DFE202001900020CC
:103B4000029001A90448FFF779FB08B1FCF702FED7
:103B500007B000BD000400409C03002010B5002207
:103B60000749084802F007F80749064802F045FCF3
:103B70000649044802F092FB024802F007FD10BD1E
:103B800044000020CC090020B00000207800002074
:103B900000BFFEE77047000002480068C0F3022043
:103BA000704700000CED00E010B5002807DA0A07A6
:103BB000140E054A00F00F031B1FD45403E00A073C
:103BC000130E024A135410BD18ED00E000E400E0AB
:103BD00010B50248FDF74AFE10BD0000F00B0020B2
:103BE0002DE9F84F07460E46D7F800800025AA4673
:103BF000C6EBC60107F1380000EB8104D4E90501EA
:103C0000451AA068A84200D2A568E81C4FEA9009AE
:103C100017E0D4E90501451AA068A84200D2A568BA
:103C2000E81C4FEA9009387CABB2F2B200904046F3
:103C3000E16803F0DCFBE0682844E060A069284408
:103C4000A06108F5106000EB4610806980B248451D
:103C500006D9D4E90510884202D260690028D8D17B
:103C600065B9012000FA06FA40F6340050F8080061
:103C700020EA0A0040F6340141F808000020BDE8BF
:103C8000F88F70472DE9F04104460F4615461E4651
:103C9000D4F81882A819D8F86012884209D92123CB
:103CA00005223946204600F0BEFA4FF0FF30BDE84D
:103CB000F0810020FBE70000F0B504460D46D4F883
:103CC0001862507800F0010010B10E4B07210CE093
:103CD000D4F81C02C06905EBC50700EB870318790F
:103CE000411D1079884200DC1179718105E0481E80
:103CF00081B25F5C06F10C0047540029F7D1002027
:103D0000F0BD000024AF020870B503460C4615460E
:103D10000821D3F81822518106E0481E81B20448D8
:103D2000465C02F10C0046540029F6D1002070BD1B
:103D300033AF020870B503460C461546D3F8182277
:103D40000821518106E0481E81B20448465C02F118
:103D50000C0046540029F6D1002070BD2BAF02089C
:103D600070B505460E4614462078232845D00DDC54
:103D70001A2836D005DCB0B103281AD012285AD13F
:103D80001DE01B2821D01E2855D124E02A2846D02A
:103D900004DC252837D028284DD13AE02F2844D0FC
:103DA0005A2848D123E022463146284600F060FADE
:103DB00070BD22463146284600F0F2F9F8E7224667
:103DC00031462846FFF778FFF2E72246314628467B
:103DD00000F046FAECE722463146284600F040FA69
:103DE000E6E7224631462846FFF7A4FFE0E72246F1
:103DF00031462846FFF788FFDAE722463146284653
:103E000000F089F9D4E722463146284600F043F90C
:103E1000CEE722463146284600F0C7F8C8E72246DA
:103E20003146284600F077FAC2E722463146284656
:103E300000F049FABCE7202305223146284600F06D
:103E4000F2F94FF0FF30B3E72DE9F04706460F4691
:103E5000D6F81842D4F86802B0F5007F02D2D4F840
:103E6000680201E04FF400700546B4F85E02B5FB4D
:103E7000F0F01FFA80F8B4F85E12D4F86402B0FBD8
:103E8000F1F9D6F81C0243464A4604F10C01D0F879
:103E900010C03846E047002809DA112304223946C9
:103EA000304600F0C0F94FF0FF30BDE8F087ABB20C
:103EB00004F10C028121304602F041F9D4F8640289
:103EC0002844C4F86402D4F86802401BC4F86802AD
:103ED0004FF40D700059411B4FF40D700151D4F88F
:103EE000680208B9032020720020DEE72DE9F047C0
:103EF00006460F46D6F81842D4F86802B0F5007F9F
:103F000002D2D4F8680201E04FF400700546B4F81C
:103F10005E02B5FBF0F01FFA80F8B4F85E12D4F838
:103F20006402B0FBF1F9D6F81C0243464A4604F19C
:103F30000C01D0F814C03846E047002809DA032302
:103F400004223946304600F06EF94FF0FF30BDE8EC
:103F5000F087D4F864022844C4F86402D4F86802F4
:103F6000401BC4F868024FF40D700059411B4FF418
:103F70000D700151D4F8680220B900213046FFF7D6
:103F800083FC10E0D4F86802B0F5007F02D2D4F8C8
:103F9000680201E04FF4007083B204F10C020121C9
:103FA000304601F0BAFF0020D1E72DE9F041064686
:103FB0000F461546D6F81842207A002863D14FF4F0
:103FC0000670005D00F0800080280BD040F21920C0
:103FD000015D20230522304600F025F94FF0FF3027
:103FE000BDE8F081D6F81C0281683846884740B1A8
:103FF0003A2302223946304600F015F94FF0FF30DF
:10400000EEE7A8780006E97840EA0140297940EA1D
:10401000012069790843C4F86402287AE97940EA02
:104020000120C4F86802B4F8680283B23946304609
:10403000D4F86422FFF726FE002802DA4FF0FF30A2
:10404000CEE702202072B4F85E12D4F8640248432E
:10405000C4F86402B4F85E12D4F868024843C4F8A5
:1040600068024FF405700059D4F8681288420AD0EB
:1040700040F21920015D20230522304600F0D3F8DC
:104080004FF0FF30ACE74FF40070608139463046A6
:10409000FFF7DAFEA4E72DE9F04105460E46174684
:1040A000D5F81842D5F81C0204F25E22911C436830
:1040B0003046984748B13A2302223146284600F05C
:1040C000B2F84FF0FF30BDE8F081D4F86002401E36
:1040D000000E2073D4F86002401E010C6173B4F826
:1040E0006002401E010AA17394F86002401EE07352
:1040F000B4F85E0201162174B4F85E020114617412
:10410000B4F85E020112A17494F85E12E174082002
:1041100060810020D7E72DE9FC4105460F46904617
:10412000D5F81842002605E0002104F10C00815565
:10413000701C86B20C2EF7DBD5F81C0201AA69466A
:1041400043683846984748B13A2302223946284600
:1041500000F069F84FF0FF30BDE8FC810821E17301
:104160000098401E010E21740098401E010C6174DD
:104170000098401E010AA1740098401EE0740221BC
:104180002175BDF8040001146175BDF80400011229
:10419000A175BDF80400E0750C2060810020DBE70C
:1041A00070B504460D46D4F81812002305E0002629
:1041B00001F10C00C654581CC3B2122BF7DB70205F
:1041C00008730C26CE7491F85C0291F85D62B042DF
:1041D00020D091F85C6201F50F7010F836608E7394
:1041E00091F85C6200EBC60046790E7691F85C624D
:1041F00001F50F7000EBC60006794E7691F85C026F
:10420000401C81F85C0291F85C02042802D1002075
:1042100081F85C02122048811079122801DC1079A3
:104220004881002070BDF0B50446D4F8180290F81B
:104230005D6200F50F7505F836201E0290F85D727C
:1042400005EBC7056E6090F85D526D1C80F85D52FD
:1042500090F85D52042D02D1002580F85D52F0BD2A
:1042600010B503460C46D3F818120020488110BD43
:104270002DE9F04105460E461746D5F818424FF491
:104280000570005958B140F21920015D2023052224
:104290002846FFF7C8FF4FF0FF30BDE8F081D5F8A2
:1042A0001C0281683046884748B13A2302223146D1
:1042B0002846FFF7B8FF05202072801FEDE7002099
:1042C000608100BFE9E72DE9F04105460F4616463B
:1042D000D5F81842707800F00200022809D1242392
:1042E000052239462846FFF79EFF4FF0FF30BDE814
:1042F000F081B4F8680283B239462846D4F86422C3
:10430000FFF7C0FC002802DA4FF0FF30EFE7002093
:10431000608100BFEBE72DE9F04106460F461546E8
:10432000D6F81842207A002870D14FF40670005D4C
:1043300000F0800080280BD140F21920015D20237D
:1043400005223046FFF76FFF4FF0FF30BDE8F081E8
:10435000D6F81C0281683846884740B13A230222C9
:1043600039463046FFF75FFF4FF0FF30EEE7D6F8F3
:104370001C02C1683846884740B1272302223946CB
:104380003046FFF750FF4FF0FF30DFE7A878000618
:10439000E97840EA0140297940EA01206979084337
:1043A000C4F86402287AE97940EA0120C4F8680276
:1043B000B4F8680283B239463046D4F86422FFF775
:1043C00061FC002802DA4FF0FF30BFE7B4F85E125C
:1043D000D4F864024843C4F86402B4F85E12D4F816
:1043E00068024843C4F868024FF405700059D4F8D5
:1043F000681288420BD040F21920015D202305226B
:104400003046FFF710FF4FF0FF309FE713E0012029
:104410002072D4F86802B0F5007F02D2D4F86802A6
:1044200001E04FF4007083B204F10C020121304628
:1044300001F073FD04E039463046FFF757FD85E78C
:10444000002083E710B502460023086850624868E0
:104450009062D1E9020420430C6920434C69204357
:104460000343D06A20F0F7001843D062002010BD4B
:1044700001460869C0B270470146086800F00300B1
:10448000704708B502460020009002F1140008446D
:1044900000900098006808BD10B50248FEF75CFB6C
:1044A00010BD0000580200200FB410B504460021D2
:1044B000DDE903021043059A1043069A1043079A58
:1044C0001043089A10430143606847F6FF62904327
:1044D00008436060002010BC5DF814FB0146032017
:1044E0000860002070470146D1F88000704710B581
:1044F0000246002308689060D1E901042043CC689B
:1045000020430C6920430343D0686FF30B0018432A
:10451000D060002010BD02460868C2F8800000206C
:10452000704770B586B005460C46002601943720CA
:10453000029040200390002004904FF4806005908A
:1045400001A92846FFF7D3FF41F2883237212846D8
:1045500000F0EAF90646304606B070BD70B586B088
:1045600005460C4600260B48204301902920029066
:1045700040200390002004904FF48060059001A932
:104580002846FFF7B4FF284600F0CEFA064630462C
:1045900006B070BD0000108070B586B005460C46B0
:1045A00000260194102002904020039000200490E7
:1045B0004FF48060059001A92846FFF798FF41F26B
:1045C00088321021284600F0AFF90646304606B082
:1045D00070BD70B586B005460C46002601940620D5
:1045E000029040200390002004904FF480600590DA
:1045F00001A92846FFF77BFF41F2883206212846B1
:1046000000F092F90646304606B070BD30B585B070
:1046100004460025002000900190029003904FF482
:104620008060049069462046FFF761FF204600F055
:104630005BF90546284605B030BD30B585B0044667
:1046400000254FF4D5700090082001904020029082
:10465000002003904FF48060049069462046FFF7E5
:1046600046FF204600F0E0FA0546284605B030BD7A
:1046700070B586B005460C460026019412200290C3
:1046800040200390002004904FF48060059001A921
:104690002846FFF72CFF41F288321221284600F00D
:1046A00043F90646304606B070BD70B586B0054683
:1046B0000C46002601941120029040200390002017
:1046C00004904FF48060059001A92846FFF70FFF82
:1046D00041F288321121284600F026F9064630467C
:1046E00006B070BDF0B585B0064614461D460027DD
:1046F00000940720019040200290002003904FF486
:104700008060049069463046FFF7F1FE41F288323E
:104710000721304600F008F90746384605B0F0BDDD
:1047200030B585B00446002500200090022001909D
:10473000C0200290002003904FF4806004906946EE
:104740002046FFF7D4FE204600F0C0F90546284673
:1047500005B030BD70B586B005460C460026019404
:1047600009200290C0200390002004904FF4806044
:10477000059001A92846FFF7BAFE284600F0A6F9E1
:104780000646304606B070BD30B585B004460025FB
:1047900000200090332001904020029000200390E0
:1047A0004FF48060049069462046FFF7A0FE41F276
:1047B00088323321204600F0B7F80546284605B078
:1047C00030BD70B586B005460C46002601940D201C
:1047D000029040200390002004904FF480600590E8
:1047E00001A92846FFF783FE41F288320D212846B1
:1047F00000F09AF80646304606B070BD70B586B037
:1048000005460C460026002001900320029040201F
:104810000390002004904FF48060059001A9284681
:10482000FFF765FE22460321284600F0A5F906465B
:10483000304606B070BD000030B585B00446002596
:10484000002000900C200190402002900020039056
:104850004FF48060049069462046FFF748FE044A02
:104860000C21204600F060F80546284605B030BD12
:1048700000E1F50570B586B005460C4600260194AA
:104880001920029040200390002004904FF4806093
:10489000059001A92846FFF72AFE41F28832192126
:1048A000284600F041F80646304606B070BD70B5A7
:1048B00086B005460C460026019418200290402040
:1048C0000390002004904FF48060059001A92846D1
:1048D000FFF70DFE41F288321821284600F024F837
:1048E0000646304606B070BD01460E480068C00856
:1048F0004FF47A73B0FBF3F041F2883300FB03F21C
:1049000000BF101EA2F1010202D14FF0004070471B
:10491000486B00F080000028F3D040F2FF5088631D
:104920000020F4E7A40000202DE9F04105460E46E2
:10493000174664480068C0084FF47A71B0FBF1F084
:1049400000FB07F800BFB8F10000A8F1010803D18F
:104950004FF00040BDE8F081686B00F04500002892
:10496000F1D0686B00F0040010B10420A863F1E7F7
:10497000686B00F0010010B10120A863EAE7284647
:10498000FFF776FDB04201D00120E3E740F2FF508F
:10499000A86300212846FFF774FD04464A482040DA
:1049A00008B90020D6E704F00040B0F1004F02D172
:1049B0004FF00070CEE704F08040B0F1804F01D19D
:1049C0004020C7E704F00050B0F1005F01D1802023
:1049D000C0E704F08050B0F1805F02D14FF48070E6
:1049E000B8E704F00060B0F1006F02D14FF400703E
:1049F000B0E704F08060B0F1806F02D14FF48060C6
:104A0000A8E704F08070B0F1807F02D14FF400601D
:104A1000A0E704F40000B0F5000F02D14FF480507D
:104A200098E704F48000B0F5800F02D14FF40050F5
:104A300090E704F40010B0F5001F02D14FF480405D
:104A400088E704F48010B0F5801F02D14FF40040D5
:104A500080E704F48020B0F5802F02D14FF40030BD
:104A600078E704F40030B0F5003F02D14FF4802025
:104A700070E704F48030B0F5803F02D14FF400209D
:104A800068E704F40040B0F5004F02D14FF4801005
:104A900060E704F48040B0F5804F02D14FF400107D
:104AA00058E704F40050B0F5005F02D14FF48000E5
:104AB00050E704F00800082801D100054AE74FF448
:104AC000803047E7A400002008E0FFFD01461548BC
:104AD0000068C0084FF47A73B0FBF3F041F28833FA
:104AE00000FB03F200BF101EA2F1010202D14FF041
:104AF00000407047486B00F045000028F3D0486B39
:104B000000F0040010B104208863F2E7486B00F065
:104B1000010010B101208863EBE740F2FF50886389
:104B20000020E6E7A4000020014612480068C00803
:104B30004FF47A73B0FBF3F041F2883300FB03F2D9
:104B400000BF101EA2F1010202D14FF000407047D9
:104B5000486B00F045000028F3D0486B00F00400DB
:104B600010B104208863F2E740F2FF508863002010
:104B7000EDE70000A40000202DE9F04104460E46B8
:104B8000174628480068C0084FF47A71B0FBF1F06E
:104B900041F2883100FB01F800BFB8F10000A8F134
:104BA000010803D14FF00040BDE8F081606B00F0D8
:104BB00045000028F1D0606B00F0040010B1042023
:104BC000A063F1E7606B00F0010010B10120A06369
:104BD000EAE72046FFF74CFCB04201D00120E3E7B2
:104BE00040F2FF50A06300212046FFF74AFC054633
:104BF00005F4604018B9280C38800020D4E705F48B
:104C00008040B0F5804F02D14FF40050CCE705F45E
:104C10000040B0F5004F02D14FF48050C4E74FF48C
:104C20008030C1E7A4000020014614480068C00895
:104C30004FF47A73B0FBF3F041F2883300FB03F2D8
:104C400000BF101EA2F1010202D14FF000407047D8
:104C5000486B00F045000028F3D0486B00F00400DA
:104C600018B1402088630420F1E7486B00F0400051
:104C700008B1402088630020E9E70000A40000207C
:104C800010B50446012007490870FBF765FC28B9F8
:104C90000448007820F001000249087001480078BB
:104CA00010BD00003000002070B50646B46BE06B0C
:104CB000406D012803D0206C406D01281ED140F2C8
:104CC000FF50216888632068C06B20F49D702168C4
:104CD000C863A06B40F08040A0632046FDF727FF2B
:104CE0000546062D01D0052D05D12068FFF7A4FD4E
:104CF000A16B0843A063012084F834002046FDF72F
:104D00000AFE70BD70B50546AC6B0026206B82288C
:104D10000AD12068FFF790FD06462EB1A06B304304
:104D2000A0632046FDF7F7FD2068C06A20F0080068
:104D30002168C86240F2FF5021688863012084F82E
:104D400034002046FEF7C2F970BD70B50646B46B5C
:104D5000E06B08B10020E063206CD8B92046FDF775
:104D6000E6FE05460020A063012084F83400062DED
:104D700001D0052D0ED12068FFF75EFDA16B084321
:104D8000A063A06B18B12046FDF76CFD02E0204641
:104D9000FDF7C1FD70BD0146886B0268D26B42F41D
:104DA00080720368DA63704770B50646B46B206C96
:104DB00008B100202064E06BD8B92046FDF7B7FEAB
:104DC00005460020A063012084F83400062D01D0A0
:104DD000052D0ED12068FFF72FFDA16B0843A063BE
:104DE000A06B18B12046FDF73DFD02E02046FDF71F
:104DF00092FD70BD2DE9F04188B004460E460025B5
:104E0000FCF78AFA804600270020009001900821D4
:104E10002068FFF7C1FB05461DB1284608B0BDE874
:104E2000F0815022125B11042068FFF77AFB0546DF
:104E30000DB12846F2E74FF0FF30029008200390B2
:104E40003020049002200590002006900120079059
:104E500002A92068FFF7F6FA2068FFF795FC0546DF
:104E60000DB12846DAE713E02068406B00F400102B
:104E700028B12068FFF737FB4DF827007F1CFCF7AF
:104E80004BFAA0EB0800401C10B94FF00040C5E7FA
:104E90002068406B40F22A4108400028E4D0206896
:104EA000406B00F0080018B1082021688863B5E75E
:104EB0002068406B00F0020018B10220216888636E
:104EC000ACE72068406B00F0200018B1202021687A
:104ED0008863A3E740F2FF502168886300980006CA
:104EE000009901F47F4140EA0120009901F47F011B
:104EF00040EA1120009940EA1160706001980006B4
:104F0000019901F47F4140EA0120019901F47F01F8
:104F100040EA1120019940EA1160306000207DE7ED
:104F200030B58FB004460025012003902068FFF7BC
:104F3000A3FA18B94FF080600FB030BD606C032841
:104F40001BD02068FFF7ECFB05460DB12846F3E7C0
:104F500000212068FFF795FA606704212068FFF7B9
:104F600090FAA06708212068FFF78BFAE0670C2110
:104F70002068FFF786FA80210851606C032807D06B
:104F800003A92068FFF73AFC05460DB12846D3E790
:104F9000606C032820D0BDF80C1021655022125BF4
:104FA00011042068FFF7D6FB05460DB12846C3E77C
:104FB00000212068FFF765FA606604212068FFF78A
:104FC00060FAA06608212068FFF75BFAE0660C2112
:104FD0002068FFF756FA206704212068FFF751FA8E
:104FE000010DE16404A92046FDF796FC5020005B0A
:104FF00001040A4600232068FFF774FB05460DB143
:10500000284699E7D4E90412A069CDE9001202907C
:1050100094E80F00FFF748FA00208DE7F8B5044642
:10502000002000900026002700252068FFF7EEFAF8
:1050300005460DB12846F8BD2068FFF7FEFA054683
:105040006DB30021A16425E00098411C00914FF64A
:10505000FF71884202D14FF08070ECE70021206898
:10506000FFF75FFA054615B14FF08050E3E70021E6
:105070002068FFF773FA054615B14FF08050DAE764
:1050800000212068FFF7FDF90646012080EAD6706E
:1050900080F00107002FD7D00020606433E00121A9
:1050A000A16424E00098411C00914FF6FF718842F2
:1050B00002D14FF08070BEE700212068FFF731FA7F
:1050C00005460DB12846B6E74FF080412068FFF74E
:1050D00045FA05460DB12846ADE700212068FFF7E7
:1050E000D0F90646012080EAD67080F00107002F33
:1050F000D8D006F08040B0F1804F02D1012060642A
:1051000001E000206064002095E770B504460025AA
:10511000A66A00BF05E02068FFF7E5F946F825001C
:105120006D1C082DF7D3A06A2030A062002070BD4E
:1051300070B504460D46002615B94FF0006070BDED
:105140005022125B11042068FFF73BFB06460EB1AC
:105150003046F4E700212068FFF793F9286000202B
:10516000EDE77CB504460020009001900025002169
:105170002068FFF786F900F00070B0F1007F02D1DF
:105180004FF400607CBD69462046FFF733FE0546BC
:105190000DB12846F6E7019800F4803098B150220E
:1051A000125B11042068FFF7BCF905460DB12846D3
:1051B000E8E700212068FFF70CFA05460DB1284604
:1051C000E0E70020DEE74FF08060DBE77CB50446D7
:1051D000002000900190002500212068FFF751F980
:1051E00000F00070B0F1007F02D14FF400607CBD90
:1051F00069462046FFF7FEFD05460DB12846F6E755
:10520000019800F4802098B15022125B11042068AC
:10521000FFF787F905460DB12846E8E70221206827
:10522000FFF7D7F905460DB12846E0E70020DEE795
:105230004FF08060DBE770B504460025266A00BFAA
:1052400005E006EB85012068FFF765F96D1C082D68
:10525000F7D3206A20302062002070BD10B50446CC
:10526000012006490870FBF783F920B92046FFF7B3
:1052700007FD024908700148007810BD3000002089
:10528000F0B589B007460D46144601261648007849
:1052900000F0010010B1032009B0F0BD35B1012DBF
:1052A00006D0022D0BD0032D18D10FE0002617E0F9
:1052B00001A8FBF747F907982060002610E001A835
:1052C000FBF740F908982080002609E001A8FBF7C9
:1052D00039F90898400A2060002601E0042600BF42
:1052E00000BF3046D8E70000300000202DE9F0472D
:1052F00081460D4616461F464FF0010800201A4908
:1053000008603A4631462846FBF750F940BBFCF7A7
:1053100003F8044600BF1448006830B9FBF7FCFFEF
:10532000001B47F230518842F5D30F48006810B98E
:105330004FF0010814E000200B490860FBF7ECFF78
:10534000044605E0FBF708F910B94FF0000806E045
:10535000FBF7E2FF001B47F230518842F2D300BF57
:105360004046BDE8F08700003800002010B5044634
:105370002046FFF785FC10BD2DE9F04781460D461C
:1053800016461F464FF0010800201A4908603A46A9
:1053900031462846FBF724F940BBFBF7BDFF044626
:1053A00000BF1448006830B9FBF7B6FF001B47F296
:1053B00030518842F5D30F48006810B94FF001080A
:1053C00014E000200B490860FBF7A6FF044605E047
:1053D000FBF7C2F810B94FF0000806E0FBF79CFF9E
:1053E000001B47F230518842F2D300BF4046BDE86F
:1053F000F08700003400002003464FF4803008603E
:10540000C011108000207047002070470146002026
:10541000704701460020704701460020704710B5D4
:105420000446002010BD10B50446002010BD704792
:1054300010B5164809F0ADFD154809F00FFF1549E4
:105440000860154A0C211348006809F0FCFE134A55
:1054500004211048006809F0F6FE114A10210D4899
:10546000006809F0F0FE0F4A19210A48006809F0A7
:10547000EAFE074809F0C2FE0B4908600B4A00210A
:105480000948006809F0AFFE10BD00004405002087
:1054900060CB020814000020240000201C00002023
:1054A000200000202C0000201800002028000020F0
:1054B00010B5FBF737FF10BD00B593B0302107A83A
:1054C000FAF7DEFE142102A8FAF7DAFE00BF002088
:1054D00001902348006840F0805021490860084648
:1054E000006800F08050019000BF00BF00BF0020A6
:1054F00001901C48006840F440401A490860084682
:10550000006800F44040019000BF00BF01200790F8
:105510000004089002200D9041050E9104210F9186
:10552000C0211091042111910821129107A8FCF7C4
:1055300075FF08B1FBF70EF90F20029002200390CF
:10554000002004904FF48050059000200690032125
:1055500002A8FCF745FE08B1FBF7FCF813B000BD4C
:1055600040380240007000401448006840F4700069
:10557000124908601248006840F0010010490860B4
:1055800000200F49083108600D4800680D490840A7
:105590000B4908600C48091D0860081F006820F4CA
:1055A0008020091F0860002005490C3108604FF079
:1055B00000600249803908607047000088ED00E013
:1055C00000380240FFFFF6FE1030002410B50248FC
:1055D000FDF769FF10BD00009C0300200022026857
:1055E000234B98420BD0B0F1804F08D0214B98420A
:1055F00005D0214B984202D0204B984201D1012383
:1056000000E000231BB122F070024B681A43184BD4
:10561000984214D0B0F1804F11D0164B98420ED062
:10562000154B98420BD0154B984208D0144B98421A
:1056300005D0144B984202D0134B984201D101235C
:1056400000E000231BB122F44072CB681A430260D1
:105650008B68C3620B688362054B984201D10123BA
:1056600000E000230BB10B69036301234361704722
:10567000000001400004004000080040000C004011
:1056800000400140004401400048014030B50C4654
:105690000021816821F47F4142EA03252543294303
:1056A000816030BD0A460021816821F0700142F01E
:1056B000070319438160704730B50B46144600213B
:1056C0000022026A056A25F001050562816921F060
:1056D000F00141EA041122F00A021A4381610262D8
:1056E00030BD30B50B46144600210022056A25F076
:1056F000100505628169026A21F4704141EA0431B2
:1057000022F0A00242EA03128161026230BD70B54C
:1057100004460D46D4F814022946426820469047B4
:10572000002070BD70B504460D4694F8FC010228B7
:1057300002D0032811D100E000BF688801280BD1F6
:105740000020C4F80402D4F81402294682682046D6
:105750009047204600F04AF804E02946204600F031
:105760001BF800BF00BF70BD70B506460C4615465D
:105770002B4622460021304600F0CFFB002070BDB2
:1057800070B506460C4615462B462246002130468B
:1057900000F0D5FC002070BD70B504460D46802198
:1057A000204600F082FC0021204600F07EFC70BD07
:1057B00010B504460520C4F8F40100231A46194622
:1057C000204600F0AAFB002010BD70B504460E462E
:1057D00015460220C4F8F401A561E5612B46324666
:1057E0000021204600F0ABFC002070BD10B504463F
:1057F0000420C4F8F40100231A461946204600F09C
:105800009EFC002010BD000070B505460C462DB969
:105810002246064906A000F085F904E02246034925
:1058200003A000F07FF9014870BD0000E00F0020E8
:105830004D534320436F6E66696700000246122095
:1058400008800148704700006000002070B50546E0
:105850000C462DB92246064906A000F063F904E083
:105860002246034903A000F05DF9014870BD000025
:10587000E00F00204D534320496E746572666163EA
:1058800065000000024604200880014870470000BF
:105890007400002070B505460C462246024903A05C
:1058A00000F040F9004870BDE00F002053544D69EE
:1058B00063726F656C656374726F6E696373000009
:1058C00070B505460C462DB92246064906A000F0E3
:1058D00029F904E02246034903A000F023F9014816
:1058E00070BD0000E00F002053544D3332204D6155
:1058F00073732053746F72616765000070B505465D
:105900000C462DB92246064906A000F00BF904E02A
:105910002246034903A000F005F9014870BD0000CC
:10592000E00F002030303030303030303030314116
:105930000000000070B504460D46E888012804D038
:1059400029462046FFF728FF1BE094F8FC010228B7
:1059500002D003280FD108E00020A060012204F14A
:1059600008012046FFF731FF0AE00122211D2046F1
:10597000FFF72BFF04E029462046FFF70DFF00BF8D
:1059800000BF70BDF8B504460E46708800120828A6
:105990007FD2DFE800F07E040C207E7E5F6D207CED
:1059A000D4F810120A6869469047054676E0207CD4
:1059B00040B9D4F81402816A684688470546022136
:1059C000697007E0D4F81402C16A68468847054642
:1059D0000221697062E0B078062834D2DFE800F076
:1059E000030B131B232B207CD4F810124A68694642
:1059F000904705462CE0207CD4F810128A6869464E
:105A00009047054624E0207CD4F81012CA68694605
:105A1000904705461CE0207CD4F810120A696946BC
:105A20009047054614E0207CD4F810124A69694674
:105A3000904705460CE0207CD4F810128A6969462C
:105A40009047054604E031462046FFF7A5FEF8BD25
:105A500000BF23E0207C30B9D4F81402416B6846C3
:105A6000884705461AE031462046FFF795FEEEE7E7
:105A7000207C48B9D4F81402016B68468847054673
:105A8000072169700AE004E031462046FFF784FEF2
:105A9000DDE731462046FFF77FFED8E700BFBDF8BF
:105AA000000088B1F08878B1F088BDF80010884215
:105AB00002DDBDF8000000E0F0880090BDF8002095
:105AC00029462046FFF781FE00BFC0E701460020BF
:105AD00002E0421CD0B2491C0A78002AF9D1704772
