:020000040800F2
:10000000301B0120AD01000815280008BF2500089D
:1000100011280008E90400086B3A000800000000FD
:100020000000000000000000000000000938000887
:100030002706000800000000512800080B380008BF
:10004000C7010008C7010008C7010008C701000870
:10005000C7010008C7010008C7010008C701000860
:10006000C7010008C7010008C7010008C701000850
:10007000C7010008C7010008C7010008C701000840
:10008000C7010008C7010008C70100080000000000
:10009000000000000000000000000000C701000890
:1000A000C7010008C7010008C7010008C701000810
:1000B000C701000829390008C7010008C701000866
:1000C000C7010008C7010008C7010008C7010008F0
:1000D000C7010008C7010008C701000800000000B0
:1000E000C7010008C7010008C701000800000000A0
:1000F000000000000000000000000000C701000830
:1001000000000000A9280008C7010008C701000876
:1001100000000000000000000000000000000000DF
:10012000ED040008C7010008C7010008FD0400082D
:10013000C7010008000000000000000000000000EF
:10014000000000000000000000000000C7010008DF
:10015000C70100080D050008C7010008C701000815
:10016000C7010008C70100080000000000000000EF
:10017000000000000000000000000000000000007F
:1001800000000000C701000800000000000000009F
:10019000C7010008C7010008DFF80CD000F07AF8AA
:1001A0000048004749520008301B0120064880479C
:1001B00006480047FEE7FEE7FEE7FEE7FEE7FEE74C
:1001C000FEE7FEE7FEE7FEE7C538000899010008F4
:1001D0002DE9F05F0546002092469B46884606467C
:1001E000814640241BE0284641464746224600F00F
:1001F00041F853465A46C01A914110D31146184649
:10020000224600F028F82D1A67EB01084F462246D7
:100210000120002100F01FF817EB00094E41201EBD
:10022000A4F10104DFDC484631462A464346BDE8D6
:10023000F09FD2B201E000F8012B491EFBD27047BB
:100240000022F6E710B513460A4604461946FFF7A2
:10025000F0FF204610BD202A04DB203A00FA02F10C
:10026000002070479140C2F1200320FA03F31943A4
:1002700090407047202A04DB203A21FA02F0002146
:10028000704721FA02F3D040C2F1200291400843A6
:1002900019467047064C074D06E0E06840F0010340
:1002A00094E8070098471034AC42F6D3FFF778FF84
:1002B000F0FF01081000020854494A6822F4403255
:1002C0004A604A6843681A434A600268526822F4E6
:1002D000807203685A6002685368026943EA022226
:1002E00003685A600268526822F0407203685A60DC
:1002F0000268526883681A4303685A600268926809
:1003000022F4006203689A6002689268C3681A4324
:1003100003689A603E4B826A9A4218D002689268DB
:1003200022F0706203689A6002689268836A1A43D6
:1003300003689A600268926822F0405203689A60EB
:1003400002689268C36A1A4303689A600BE0026805
:10035000926822F0706203689A600268926822F0E4
:10036000405203689A600268926822F002020368B1
:100370009A6002689368826943EA420203689A605D
:10038000026AA2B10268526842F4006203685A60CD
:100390000268526822F4604203685A600268536837
:1003A000426A521E43EA423203685A6005E002681C
:1003B000526822F4006203685A600268D26A22F42A
:1003C00070020368DA620268D36A828B521E43EAC3
:1003D00002520368DA620268926822F400720368CB
:1003E0009A6002689368026B43EA422203689A604B
:1003F0000268926822F4806203689A6002689368D7
:10040000426943EA822203689A60704700230140F0
:100410000100000F7047000010B504462146024855
:1004200001F05AFB10BD00001C01002010B504486B
:1004300001F065FB042801D0012010BD0020FCE77D
:100440001C01002010B5002400F014F8012801D090
:10045000012010BD064801F067FC044634B94FF492
:100460000061034801F0EBF900B101242046F0E7F8
:100470001C01002008B5012000909DF8000008BD77
:100480002DE9F04104460D461646002733462A461C
:100490002146044801F06EFD00B101273846BDE851
:1004A000F08100001C010020012001490860704714
:1004B000500000202DE9F04104460D461646002765
:1004C00033462A462146044801F0F2FD00B10127D7
:1004D0003846BDE8F08100001C01002001200149E0
:1004E000086070474C00002000BFFEE710B50248CE
:1004F00000F09CFA10BD0000BC00002010B50248BE
:1005000000F094FA10BD0000A001002010B50248D0
:1005100000F08CFA10BD00000002002001460878AF
:1005200010381823B0FBF3F20848805CC865032A32
:1005300005D908686FF30900001D886503E00868A5
:100540006FF309008865886D70470000F856000851
:10055000014600208A6A8B69CBB932B1012A0DD0DD
:10056000022A03D0032A10D10EE000BFCB6A03F0A9
:100570008073B3F1807F00D1012007E0CB6AB3F133
:10058000C07F00D1012001E000E000BF34E08B69B2
:10059000B3F5005F1AD132B1012A07D0022A03D085
:1005A000032A11D10AE000BF01200EE0CB6A03F05C
:1005B0008073B3F1807F00D1012006E0CB6AB3F1F4
:1005C000C07F00D1012000E000BF15E032B1012A58
:1005D00005D0022A04D0032A0CD103E000BF00BFDB
:1005E000012008E0CB6A03F08073B3F1807F00D173
:1005F000012000E000BF00BF704730B504682468E8
:1006000024F4802405682C60046863608468402CAE
:1006100004D10468A2600468E16003E00468A1609A
:100620000468E26030BD7047704730B504460D463F
:1006300000222946204600F001F830BDF0B50346FF
:10064000012500241148407A01281CDA00200F4EB1
:10065000767A0E4FB8553846467A001D40F8263057
:10066000001F467A083082553E46707A461C7E72DC
:10067000044604F1300008703A2048702F2088703A
:100680000020C87000252846F0BD0000200B012086
:1006900010B5012221A1224803F080FF21490870F2
:1006A00001229103204800F0A9FC012251031E48B9
:1006B00000F0A4FC30E04FF480411B4800F09AFCAD
:1006C00001221A491A4803F099FF164908704FF49D
:1006D00080401849086012E0174B4FF480321749E8
:1006E000134804F0A8F80F4908700846007830B1A4
:1006F00000224FF400510C4800F080FC10BD0D4862
:1007000001680068401E0B4A10600029E4D10848C7
:1007100003F02EFF03490870CDE70000303A0000D7
:100720009C06012054000020000802402F000020F9
:1007300008040120440000200800002008040020D4
:1007400038B502460020009000BF92F83C00012816
:1007500001D1022038BD012082F83C0000BF0868AA
:10076000092816D91068C0680C780A3C04EB4405C7
:100770000724AC40A0431468E0600C780A3C04EB0A
:1007800044048868A0401468E46820431468E0606A
:1007900013E0106800690C7804EB44050724AC40B2
:1007A000A043146820610C7804EB44048868A040DE
:1007B000146824692043146820614868072817D208
:1007C0001068406B0C79641E04EB84051F24AC4058
:1007D000A04314686063088880B20C79641E04EB3F
:1007E0008404A0401468646B20431468606331E0A3
:1007F00048680D2817D21068006B0C79E41F04EBD1
:1008000084051F24AC40A04314682063088880B28C
:100810000C79E41F04EB8404A0401468246B20438B
:100820001468206316E01068C06A0C790D3C04EB74
:1008300084051F24AC40A0431468E062088880B29D
:100840000C790D3C04EB8404A0401468E46A204356
:100850001468E0621A4B1B4C1068A04206D108686D
:10086000122803D1586840F480005860154C106875
:10087000A0421ED1144C0868A04202D0086811287A
:1008800017D1586840F4000058600F4C0868A04227
:100890000FD10E4800680E4CB0FBF4F000EB800066
:1008A0004000009002E00098401E00900098002850
:1008B000F9D100BF002082F83C0000BF00BF49E72B
:1008C00000230140002001401200001068000020B9
:1008D00040420F0070B5044600250CB9012070BDE0
:1008E0001549A06A884200D000BF206C30B90020B2
:1008F000606484F83C00204600F020F8206C00F092
:10090000100088B9206C20F4885040F00200206468
:100910002046FFF7D1FC00206064206C20F002002C
:1009200040F00100206400E0012500BF002084F8B1
:100930003C0000BF2846D2E70100000F10B586B08A
:100940000446142101A8FFF77BFC2949206888424E
:100950004CD100BF002000902648006840F4807011
:10096000244908600846006800F48070009000BFC9
:1009700000BF00BF002000901E481438006840F0FF
:1009800001001C49143908600846006800F00100A5
:10099000009000BF00BF02200190032002900020C1
:1009A000039001A9144800F03BFA14481449086068
:1009B00000204860002112488160C1604FF48061CE
:1009C000016149004161890081614911C1614FF4B0
:1009D000403101620021416200F048F908B1FFF79F
:1009E00023FE00BF0648A063846300BF06B010BDAD
:1009F00000200140443802400000024010640240E0
:100A0000BC000020014691F83500022803D0802068
:100A1000486501207047052081F8350008680068A6
:100A200020F001000A6810600020F3E7F8B50446E2
:100A3000002000908C4800684FF41651B0FBF1F78D
:100A4000A56D2E6894F85C1008208840304098B15D
:100A50002068006800F0040070B12068006820F091
:100A600004002168086094F85C1008208840A860A1
:100A7000606D40F00100606594F85C1001208840D2
:100A8000304068B12068406900F0800040B194F8BF
:100A90005C1001208840A860606D40F00200606535
:100AA00094F85C1004208840304068B120680068E9
:100AB00000F0020040B194F85C1004208840A86067
:100AC000606D40F00400606594F85C101020884070
:100AD000304078B32068006800F0080050B394F804
:100AE0005C1010208840A8602068006800F4802016
:100AF00080B12068006800F4002028B9206CC8B1DB
:100B00002046216C884715E0A06C98B12046A16C66
:100B100088470FE02068006800F4807028B92068DA
:100B2000006820F0080021680860206C10B12046A1
:100B3000216C884794F85C102020884030400028C1
:100B400065D02068006800F0100000285FD094F89D
:100B50005C1020208840A86094F83500052828D132
:100B60002068006820F0160021680860206840694D
:100B700020F0800021684861206C08B9A06C28B181
:100B80002068006820F008002168086094F85C1074
:100B90003F208840A86000BF002084F8340000BFD8
:100BA000012084F83500206D10B12046216D884762
:100BB000F8BD2068006800F4802080B120680068DB
:100BC00000F4002028B9606C10B12046616C8847A1
:100BD0001DE0E06BD8B12046E16B884717E0206844
:100BE000006800F4807068B92068006820F0100088
:100BF0002168086000BF002084F8340000BF012095
:100C000084F83500E06B10B12046E16B8847606DD9
:100C100038B3606D00F00100F0B1052084F83500B4
:100C20002068006820F001002168086000BF00987B
:100C3000401C0090B84200D905E02068006800F030
:100C400001000028F3D100BF00BF002084F8340069
:100C500000BF012084F83500E06C10B12046E16C43
:100C6000884700BFA4E70000680000202DE9F0419C
:100C70000446002500F0C8F9074614B90120BDE874
:100C8000F081606A00B100BF00BF002084F834002A
:100C900000BF022084F835002068006820F00100C1
:100CA000216808600AE000F0AFF9C01B052805D9EB
:100CB00020206065032084F83500E0E720680068A4
:100CC00000F001000028EED12068056821480540A9
:100CD000D4E901010843E1680843216908436169D7
:100CE0000843A1690843E1690843216A08430543B1
:100CF000606A042803D1D4E90B0108430543206846
:100D000005602068456925F00705606A0543606A4B
:100D100004280DD1A06A0543E06A48B12046FFF7D8
:100D200017FC28B140206065012084F83500A6E753
:100D3000206845612046FFF7F1FB064694F85C10F9
:100D40003F208840B06000206065012084F83500B5
:100D5000002094E73F8010F02DE9F04704460D464F
:100D600016461F464FF00008D4F8589000BF94F87C
:100D70003400012802D10220BDE8F087012084F868
:100D8000340000BF94F8350001282BD1022084F8EC
:100D90003500002060653B46324629462046FFF775
:100DA0002CFC94F85C103F208840C9F808002068AB
:100DB000006840F01600216808602068406940F033
:100DC000800021684861206C28B12068006840F0EC
:100DD0000800216808602068006840F00100216870
:100DE000086006E000BF002084F8340000BF4FF028
:100DF00002084046C0E7000070B5044600F004F960
:100E000006462546681C10B104480078054400BF1A
:100E100000F0FAF8801BA842FAD370BD64000020ED
:100E2000F8B503460A460025002400200021CDE045
:100E3000012606FA01F5166806EA0504AC4273D1EC
:100E40005668022E02D05668122E13D1CF0803F135
:100E5000200656F827004E07F70E0F26BE40B04377
:100E60004F07FF0E1669BE403043CF0803F120063E
:100E700046F8270018684F000326BE40B043167995
:100E800006F003064F00BE40304318605668012E3E
:100E900008D05668022E05D05668112E02D056682A
:100EA000122E13D198684F000326BE40B0434F0066
:100EB000D668BE4030439860586801268E40B043E3
:100EC0001679C6F300168E4030435860D8684F003C
:100ED0000326BE40B0434F009668BE403043D86002
:100EE000566806F08056B6F1805F6ED100BF0026CE
:100EF0000096384E366846F48046364F3E603E4691
:100F0000366806F48046009600BF00BF324E8F0858
:100F100056F827008E07370F0F26BE40B0432F4EDE
:100F2000B34202D1002615E04FE02D4EB34201D16D
:100F300001260FE02B4EB34201D102260AE02A4ED1
:100F4000B34201D1032605E0284EB34201D1042665
:100F500000E007268F073F0FBE4030431E4E8F082C
:100F600046F82700224E3068A043566806F48036C3
:100F7000B6F5803F00D120431D4E3060361D3068ED
:100F8000A043566806F40036B6F5003F00D1204372
:100F9000174E361D3060361D3068A043566806F483
:100FA0008016B6F5801F00D12043114E0836306000
:100FB000361D3068A043566806F40016B6F5001FCB
:100FC00000D120430A4E0C363060491C1029FFF432
:100FD0002FAFF8BD443802400838014000000240FD
:100FE0000004024000080240000C024000100240D1
:100FF000003C014042694A40426170470AB1816148
:1010000001E00B04836170470148006870470000ED
:101010005C0000200348006803490978084401493E
:10102000086070475C0000206400002010B50D4887
:10103000006840F400700B4908600846006840F4FE
:10104000806008600846006840F4807008600320F3
:1010500000F0A0F8002000F007F800F02BF80020C6
:1010600010BD0000003C024070B504460E480078F8
:101070004FF47A71B1FBF0F00C490968B1FBF0F55F
:10108000284601F0A7F808B1012070BD102C07D246
:1010900000222146501E00F03EF80548046001E0A1
:1010A0000120F2E70020F0E7640000206800002043
:1010B0006000002008B500BF002000900E480068C6
:1010C00040F480400C4908600846006800F4804005
:1010D000009000BF00BF00BF00200090081F006804
:1010E00040F08050091F08600846006800F08050FA
:1010F000009000BF00BF08BD4438024000BF00F0B0
:101100001F02012191404209920002F1E022C2F83F
:10111000001100BF70472DE9F05F80460D4616466E
:10112000002701F079FB074639462A46334601F08D
:101130000700C0F1070ABAF1040F02D94FF0040A00
:1011400001E0C0F1070AD14600F1040ABAF1070F25
:1011500002D24FF0000A01E0A0F1030AD4464FF09A
:10116000010A0AFA09FAAAF1010A0AEA020A0AFAC3
:101170000CFA4FF0010B0BFA0CFBABF1010B0BEA75
:10118000030B4AEA0B042146404601F04DFBBDE843
:10119000F09F000000BF00F00702064B19684FF6F1
:1011A000FF031940044B0B4343EA0221014B196032
:1011B00000BF70470CED00E00000FA0570B5044672
:1011C0000D460CB9012070BD5848006800F00F00B2
:1011D000A84209D255490D700846006800F00F007A
:1011E000A84201D00120EEE7207800F0020002289A
:1011F0001DD1207800F00400042805D14C48006877
:1012000040F4E0504A490860207800F008000828BF
:1012100005D14748006840F46040454908604448AB
:10122000006820F0F000A168084341490860207878
:1012300000F00100A8B36068012807D13C480838D5
:101240000068C0F34040B8B90120BCE760680228DC
:1012500002D06068032807D1354808380068C0F319
:10126000406048B90120AEE7314808380068C0F353
:10127000400008B90120A6E72D48006820F00300CF
:10128000616808432A490860FFF7BEFE064609E088
:10129000FFF7BAFE801B41F28831884202D9032051
:1012A00091E707E02248006800F00C006168B0EBAD
:1012B000810FEDD11D48006800F00F00A84209D948
:1012C0001A490D700846006800F00F00A84201D0CE
:1012D000012078E7207800F00400042807D11448A2
:1012E000006820F4E050E168084311490860207864
:1012F00000F00800082808D10D48006820F460407C
:10130000216940EAC1000A49086000F017F808495D
:101310000968C1F30311074A515CC84006490860D7
:101320000020FFF7A1FE00204DE70000003C024036
:101330000838024000570008680000202DE9F047F7
:10134000002400250026A1462548006800F00C0076
:1013500020B1042805D008283AD105E0DFF88490B0
:1013600039E0DFF8849036E01D48001F006800F087
:101370003F041B48001F006800F4800078B11A4841
:101380001749091F0968C1F38811A0FB01700146C4
:10139000224600233846FEF71BFF05460EE01148A3
:1013A0000F49091F0968C1F38811A0FB01700146AC
:1013B000224600233846FEF70BFF05460848001F6B
:1013C0000068C0F30140401C4600B5FBF6F902E09E
:1013D000DFF8109000BF00BF4846BDE8F08700006E
:1013E000083802400024F40000127A00F8B50446E0
:1013F0000CB90120F8BD207800F00100002874D05D
:10140000F948006800F00C0004280DD0F648006888
:1014100000F00C00082813D1F348001F006800F406
:101420008000B0F5800F0BD1EF4808380068C0F39A
:101430004040002859D06068002856D10120D9E7E3
:1014400000BF6068B0F5803F08D1E7480838006801
:1014500040F48030E449083908601EE06068B0F567
:10146000A02F0DD1E0480838006840F48020DE4904
:10147000083908600846006840F4803008600CE0D5
:10148000D9480838006820F48030D7490839086006
:101490000846006820F48020086000BF606890B1B2
:1014A000FFF7B2FD054606E0FFF7AEFD401B6428DE
:1014B00001D903209EE7CC4808380068C0F34040BB
:1014C0000028F1D011E0FFF79FFD054606E0FFF789
:1014D0009BFD401B642801D903208BE7C2480838D4
:1014E0000068C0F340400028F1D1207800F00200ED
:1014F00002285FD1BC48006800F00C0058B1BA481F
:10150000006800F00C0008281CD1B748001F0068D4
:1015100000F48000B0B9B44808380068C0F3400057
:1015200020B1E068012801D0012063E7AE48083807
:10153000006820F0F800216940EAC100AA49083992
:10154000086037E0E06800B30120A8490860FFF7B1
:101550005BFD054606E0FFF757FD401B022801D959
:10156000032047E7A04808380068C0F3400000287F
:10157000F1D09D480838006820F0F800216940EA61
:10158000C10099490839086014E0002097490860B3
:10159000FFF73AFD054606E0FFF736FD401B02283F
:1015A00001D9032026E7904808380068C0F34000BE
:1015B0000028F1D1207800F0080008282CD16069BB
:1015C000A8B101208A490860FFF71EFD054606E024
:1015D000FFF71AFD401B022801D903200AE78248C1
:1015E0006C300068C0F340000028F1D014E0002007
:1015F0007F490860FFF708FD054606E0FFF704FD98
:10160000401B022801D90320F4E677486C300068BB
:10161000C0F340000028F1D1207800F00400042835
:1016200070D1002670483830006800F0805090B9C2
:1016300000BF002000906C483830006840F08050B7
:101640006949383108600846006800F08050009011
:1016500000BF00BF01266748006800F48070B0B981
:101660006448006840F4807062490860FFF7CCFC71
:10167000054606E0FFF7C8FC401B022801D90320FD
:10168000B8E65C48006800F480700028F2D000BF23
:10169000A068012808D154486830006840F0010073
:1016A0005149683108601DE0A06805280DD14E48F9
:1016B0006830006840F004004B4968310860084613
:1016C000006840F0010008600CE04748683000689E
:1016D00020F001004449683108600846006820F0A5
:1016E0000400086000BFA068A8B1FFF78DFC0546A4
:1016F00009E0FFF789FC401B41F28831884202D99A
:10170000032077E626E0384868300068C0F34000E0
:101710000028EED013E0FFF777FC054608E0FFF75E
:1017200073FC401B41F28831884201D9032061E6F5
:101730002D4868300068C0F340000028EFD1012E2A
:1017400007D129483830006820F0805026493831C8
:10175000086000BFA069B8B32348006800F00C001F
:1017600008285ED0A069022846D100201F490866DB
:10177000FFF74AFC054606E0FFF746FC401B02283F
:1017800001D9032036E6184808380068C0F34060E5
:101790000028F1D1D4E907010843616A40EA8111C8
:1017A0000122A06AC2EB500041EA00412C20005DFA
:1017B00041EA00600C49091F086001200B490866D6
:1017C000FFF722FC054607E02DE0FFF71DFC401B5C
:1017D000022801D903200DE6034808380068C0F349
:1017E00040600028F1D01EE0083802400000474267
:1017F000800E47420070004000200C490866FFF749
:1018000003FC054606E0FFF7FFFB401B022801D959
:101810000320EFE506480068C0F340600028F2D1DD
:1018200001E00120E6E50020E4E500000000474279
:101830000038024010B50446FEF7ECFD10BD70B54F
:101840008AB004460D460026032084F83400606CFC
:10185000032820D0B5F5805F04D1A06B40F0805004
:10186000A0631CE0B5F5006F07D1204601F0B6FE7D
:101870000646A06B3043A06311E03DB9204601F05D
:1018800078FE0646A06B3043A06308E0A06B40F0F2
:101890000060A06303E0A06B40F08050A063A06BE9
:1018A00040B140F2FF5021688863012084F8340081
:1018B0000AB070BD60680490A0680590E06806906A
:1018C000079560690890A069099007A807C88DE886
:1018D0000700206804A90EC900F0EEFF012084F87B
:1018E00034000020E4E7704730B503460022586E0C
:1018F000020E90090870C2F38300487002F00300E2
:101900008870586EC0F30742CA70B3F86400C0F321
:1019100007220A7193F864204A71986E020E4FF6FE
:10192000FF7000EA0210C880986EC0F30742C888B2
:1019300040EA1210C88002F00F0008726820C05AF6
:10194000C0F30722D0094872C2F380108872C2F334
:101950004010C872C2F30010087300204873586C1E
:1019600000283ED19007000D08616820C25C08691C
:1019700040EA82000861D86E020E086940EA9210BF
:101980000861C2F3C200087502F007004875D86EFE
:10199000C0F3074250098875C2F38200C8759007EA
:1019A000400F08766C20C05AC0F30722087E40EA38
:1019B000D21008760869401C58650C7E586DA41C2E
:1019C0000125A540684358650C7A0120A040986520
:1019D000D3E91504640A6043D8654FF400741C66AB
:1019E00030E0586C012821D16820C25C9006800A42
:1019F0000861D86E020E086940EA02200861D86EBC
:101A0000C0F307420869104308616C20C05AC0F354
:101A100007220869441C4FF48060A4FB0004586549
:101A2000D8654FF400749C651C660BE040F2FF50D3
:101A30001C68A063986B40F080509863012083F885
:101A4000340030BDC2F3801001F8190F9006400E2B
:101A500048706C20C25C487840EAD210487002F0AE
:101A60007F008870186F020ED009C870C2F3411051
:101A70000871C2F3820048719007000F8871186FD7
:101A8000C0F30742887940EA92108871C2F340108F
:101A9000C8710020087202F0010048727020C05A1C
:101AA000C0F30722D0098872C2F38010C872C2F353
:101AB00040100873C2F300104873C2F381008873AA
:101AC00002F00300C8737020C25C50080874012043
:101AD000487419390020B4E70246506C0860906CD5
:101AE0004860D06C8860106DC860506D0861906D62
:101AF0004861D06D8861106EC86100207047F8B5EC
:101B0000044604260025002000906946204601F086
:101B100017FD054615B1A06B2843A0630098C0F3DC
:101B200043263046F8BD000070B504460025206805
:101B3000406BC0F30020002863D04FF48070216810
:101B400088632068C06B40F23A3188432168C863DB
:101B5000206B00F0080048B3206B00F0020018B9B9
:101B6000206B00F0200050B1206801F06DF80546B0
:101B70002DB1A06B2843A0632046FFF7B4FE40F2CE
:101B8000FF5021688863012084F83400206B00F046
:101B9000010018B9206B00F0020018B1204600F0D7
:101BA0007DFABCE0204600F07EFAB8E0206B00F041
:101BB00080000028F5D0206B00F0200050B1206894
:101BC00001F042F805462DB1A06B2843A0632046E2
:101BD000FFF789FE206B00F001000028E1D1206BA7
:101BE00000F002000028DCD12068C06A20F0080064
:101BF0002168C862012084F83400204600F053FABE
:101C00008DE02068406BC0F3803038B14FF48040E5
:101C100021688863204601F016FD80E02068406B53
:101C2000C0F3C03038B14FF40040216888632046CB
:101C300001F073FC73E02068406B40F23A210840E9
:101C400008B1012000E00020002868D02068406B27
:101C5000C0F3400018B1A06B40F00200A063206800
:101C6000406BC0F3C00018B1A06B40F00800A06347
:101C70002068406BC0F3401018B1A06B40F020000A
:101C8000A0632068406BC0F3001018B1A06B40F057
:101C90001000A0632068406BC0F3402018B1A06B17
:101CA00040F00800A06340F2FF702168886320685C
:101CB000C06B40F23A3188432168C863206B00F062
:101CC000800010B3206C50B11548216C0865206C61
:101CD000FEF798FE10B1206C01F06EFA1FE0E06B89
:101CE00050B11048E16B0865E06BFEF78BFEB0B1B8
:101CF000E06B01F032FA12E00020A063012084F8CA
:101D000034002046FFF796FD09E0206B00F0080044
:101D100028B1012084F834002046FFF7E4FD70BDAF
:101D2000B93100085B31000810B504460CB9012038
:101D300010BD94F8340020B900202077204600F030
:101D400051F8032084F83400204600F009F8002000
:101D5000A0632063012084F834000020E8E700003D
:101D600030B589B00446002500200390049005900A
:101D7000069007907620089006A807C88DE807000F
:101D8000206803A90EC900F097FD002014490860DF
:101D9000206800F0ABFD01201149A039C1F8A00076
:101DA0000220FFF729F8204601F040FB054645B127
:101DB000012084F83400A06B2843A063012009B0FF
:101DC00030BD204601F0B4FA05463DB1012084F84B
:101DD0003400A06B2843A0630120F0E70020EEE769
:101DE000A080254210B586B00446142101A8FEF754
:101DF00027FA5949206888427ED100BF0020009010
:101E00005648006840F4006054490860084600687D
:101E100000F40060009000BF00BF00BF00200090F1
:101E20004E481438006840F001004C4914390860ED
:101E30000846006800F00100009000BF00BF00BF2E
:101E4000002000900846006840F002000860084644
:101E5000006800F00200009000BF00BF4FF4507017
:101E600001900220029000200390032004900C2097
:101E7000059001A93A48FEF7D3FF48F2A00001906F
:101E80000220029000200390032004900C20059073
:101E900001A93448FEF7C4FF3348344908604FF0C5
:101EA00000604860002131488160C1604FF480616A
:101EB000016189004161890081612021C1614FF484
:101EC0004031016204214162032181624FF400012B
:101ED000C16289100163FEF7C9FE08B1FEF7A4FBD9
:101EE00000BF2248E063846300BF1F484830204998
:101EF00008604FF0006000E02CE0486040211C4882
:101F000081600021C1604FF48061016189004161FD
:101F1000890081612021C1614FF4403101620421B7
:101F20004162032181624FF40001C16289100163A3
:101F3000FEF79CFE08B1FEF777FB00BF0C4820645B
:101F4000846300BF002211463120FFF7E4F83120FE
:101F5000FFF7D4F806B010BD002C01404438024011
:101F6000000002400004024058640240A00100202A
:101F7000000200202DE9F04186B00446884616464E
:101F80001D460027B8F1000F07D1A06B40F000609C
:101F9000A063012006B0BDE8F08194F83400012868
:101FA00073D10020A0637119E06D814205D9A06B47
:101FB00040F00070A0630120ECE7032084F83400B7
:101FC00000202168C8622068C06B40F495702168C9
:101FD000C8632F48E16BC8632E48E16BC8640020DA
:101FE000E16B08656A029308226802F180014246AB
:101FF000E06BFEF7B1FE012027490860606C012804
:1020000000D076024FF0FF300090680201909020DF
:102010000290022003900020049001200590694660
:10202000206800F016FC4FF40071206800F0BCFC42
:10203000074657B140F2FF5021688863A06B3843D0
:10204000A063012084F83400A4E7012D07D9822081
:1020500020633146206800F013FD074606E081202A
:1020600020633146206800F028FD07465FB140F24A
:10207000FF5021688863A06B3843A063012084F877
:10208000340087E701E0002084E7022082E70000B7
:1020900015310008B93000088C85254210B504467A
:1020A000FEF702FA10BD10B50446FEF717FA10BD90
:1020B0002DE9F04186B00446884616461D460027A5
:1020C000B8F1000F07D1A06B40F00060A0630120C1
:1020D00006B0BDE8F08194F83400012872D10020E8
:1020E000A0637119E06D814205D9A06B40F00070CA
:1020F000A0630120ECE7032084F83400002021686D
:10210000C8622068C06B40F01A002168C8632E487E
:10211000216CC8632D48216CC8640020216C0865BF
:10212000606C012800D076024FF40071206800F046
:102130003BFC074657B140F2FF5021688863A06B13
:102140003843A063012084F83400C1E7012D07D98A
:10215000A02020633146206800F094FD074606E089
:10216000902020633146206800F0A9FD074657B152
:1021700040F2FF5021688863A06B3843A0630120C0
:1021800084F83400A4E701201149086069028B0833
:10219000216801F180024146206CFEF7DDFD4FF021
:1021A000FF30009068020190902002900020039080
:1021B0000490012005906946206800F04AFB002049
:1021C00086E7FFE7022083E7A7310008B93000085F
:1021D0008C85254270B504462546681EB0F1807F87
:1021E00001D301200FE0681E4FF0E02148610F216C
:1021F0004FF0FF3000F018FB00204FF0E021886125
:1022000007200861002070BD70477047024600BF7C
:1022100092F83800012801D102207047012082F88D
:10222000380000BF022082F839001068406820F0B2
:10223000700013685860106840680B681843136892
:1022400058601068806820F08000136898601068FB
:1022500080684B68184313689860012082F8390041
:1022600000BF002082F8380000BF00BFD5E710B5DE
:1022700004460CB9012010BD94F8390028B900209B
:1022800084F83800204600F00DF8022084F8390068
:10229000211D206801F050FB012084F83900002046
:1022A000E9E7000038B504460E492068884217D196
:1022B00000BF002000900C48006840F002000A496E
:1022C00008600846006800F00200009000BF00BFF0
:1022D000002211461D20FEF71EFF1D20FEF70EFFF7
:1022E00038BD000000040040403802402DE9F041B4
:1022F00004460D46002600BF94F83800012802D19C
:102300000220BDE8F081012084F8380000BF0220DF
:1023100084F839002068866826F0770626F47F4620
:1023200020688660286850283BD00CDC202860D0CC
:1023300004DC002853D0102865D155E030285DD04A
:10234000402860D141E0602835D070280DD0B0F52C
:10235000805F03D0B0F5005F55D115E0206880683C
:1023600020F00700216888604EE0D5E902136A6812
:10237000206801F039FB2068866826F0770646F071
:102380007706206886603FE0D5E902136A68206816
:1023900001F02AFB2068806840F480402168886052
:1023A00032E0EA686968206801F034FB5021206857
:1023B00001F026FB28E0EA686968206801F03FFB2D
:1023C0006021206801F01CFB1EE0EA686968206853
:1023D00001F020FB4021206801F012FB14E00021F5
:1023E000206801F00DFB0FE01021206801F008FBD0
:1023F0000AE02021206801F003FB05E0302120687D
:1024000001F0FEFA00E000BF00BF012084F83900AF
:1024100000BF002084F8380000BF00BF71E770479C
:1024200010B5044620680069C0F34000D8B12068A8
:10243000C068C0F34000B0B16FF0020021680861CD
:10244000012020762068806900F0030018B1204642
:10245000FFF7E5FF05E0204600F0ADF8204600F06C
:10246000ABF80020207620680069C0F38000D8B166
:102470002068C068C0F38000B0B16FF0040021682C
:102480000861022020762068806900F4407018B14D
:102490002046FFF7C4FF05E0204600F08CF82046F8
:1024A00000F08AF80020207620680069C0F3C000A0
:1024B000D8B12068C068C0F3C000B0B16FF00800A8
:1024C00021680861042020762068C06900F00300BC
:1024D00018B12046FFF7A3FF05E0204600F06BF897
:1024E000204600F069F80020207620680069C0F3DB
:1024F0000010D8B12068C068C0F30010B0B16FF010
:10250000100021680861082020762068C06900F466
:10251000407018B12046FFF782FF05E0204600F02A
:102520004AF8204600F048F800202076206800692C
:1025300000F0010058B12068C06800F0010030B11F
:102540006FF0010021680861204600F036F820682D
:102550000069C0F3C01058B12068C068C0F3C01053
:1025600030B16FF08000216808612046FFF74CFE13
:1025700020680069C0F3801058B12068C068C0F3BB
:10258000801030B16FF0400021680861204600F0F3
:1025900015F820680069C0F3401058B12068C06881
:1025A000C0F3401030B16FF0200021680861204670
:1025B000FFF72BFE10BD704770477047704700BF94
:1025C000FEE700001FB500200090019002900390EC
:1025D0001448154908604FF48030486000211248C3
:1025E00081600161816101624FF08051C1624910D7
:1025F00081620021C1600121C16101634161FEF777
:1026000069F908B1FEF710F8012000900190002050
:10261000029069460448FEF793F808B1FEF704F803
:102620001FBD0000002001407400002008B500BF5D
:10263000002000901248006840F4800010490860B3
:102640000846006800F48000009000BF00BF002230
:1026500011463820FEF75FFD3820FEF74FFD0022BF
:1026600011463B20FEF757FD3B20FEF747FD0022B9
:1026700011464520FEF74FFD4520FEF73FFD08BD02
:102680003038024010B503490348FDF7CEFF034937
:10269000087010BD55000020E456000854000020CA
:1026A00000B587B0142102A8FDF7CAFD00BF0020C5
:1026B00001903048006840F004002E490860084648
:1026C000006800F00400019000BF00BF00BF0020C0
:1026D00001900846006840F08000086008460068E5
:1026E00000F08000019000BF00BF00BF00200190FB
:1026F0000846006840F0010008600846006800F0E5
:102700000100019000BF00BF00BF002001900846FB
:10271000006840F0020008600846006800F002000F
:10272000019000BF00BF00224FF4C0411248FEF7E5
:1027300065FC002243F201011048FEF75FFC4FF4F4
:10274000C04002900120039000200490059002A94F
:102750000948FEF765FB43F2010002900120039057
:1027600000200490059002A90448FEF759FB07B029
:1027700000BD000030380240000802400004024062
:10278000064807490860002048600021044881602D
:10279000C16001614161816170470000002C01400E
:1027A0001C01002000B587B0002003900490059024
:1027B0000690019002901448144908600020486077
:1027C00000211248816043F2D301C1600021016100
:1027D000FFF74DFD08B1FDF727FF4FF48050039040
:1027E00003A90A48FFF782FD08B1FDF71DFF20206D
:1027F00001900020029001A90448FFF707FD08B1ED
:10280000FDF712FF07B000BD000400406002002089
:1028100000BFFEE77047000002480068C0F30220D6
:10282000704700000CED00E010B5002807DA0A0739
:10283000140E054A00F00F031B1FD45403E00A07CF
:10284000130E024A135410BD18ED00E000E400E03E
:10285000704710B5024600230868506248689062CD
:10286000D1E9020420430C6920434C69204303430F
:10287000D06A20F0F7001843D062002010BD014656
:102880000869C0B270470146086800F0030070474D
:1028900008B502460020009002F1140008440090A0
:1028A0000098006808BD000010B50248FFF73CF929
:1028B00010BD00001C0100200FB410B5044600211B
:1028C000DDE903021043059A1043069A1043079A64
:1028D0001043089A10430143606847F6FF62904333
:1028E00008436060002010BC5DF814FB0146032023
:1028F0000860002070470146D1F88000704710B58D
:102900000246002308689060D1E901042043CC68A6
:1029100020430C6920430343D0686FF30B00184336
:10292000D060002010BD02460868C2F88000002078
:10293000704770B586B005460C46002601943720D6
:10294000029040200390002004904FF48060059096
:1029500001A92846FFF7D3FF41F2883237212846E4
:1029600000F0EAF90646304606B070BD70B586B094
:1029700005460C4600260B48204301902920029072
:1029800040200390002004904FF48060059001A93E
:102990002846FFF7B4FF284600F0CEFA0646304638
:1029A00006B070BD0000108070B586B005460C46BC
:1029B00000260194102002904020039000200490F3
:1029C0004FF48060059001A92846FFF798FF41F277
:1029D00088321021284600F0AFF90646304606B08E
:1029E00070BD70B586B005460C46002601940620E1
:1029F000029040200390002004904FF480600590E6
:102A000001A92846FFF77BFF41F2883206212846BC
:102A100000F092F90646304606B070BD30B585B07C
:102A200004460025002000900190029003904FF48E
:102A30008060049069462046FFF761FF204600F061
:102A40005BF90546284605B030BD30B585B0044673
:102A500000254FF4D570009008200190402002908E
:102A6000002003904FF48060049069462046FFF7F1
:102A700046FF204600F0E0FA0546284605B030BD86
:102A800070B586B005460C460026019412200290CF
:102A900040200390002004904FF48060059001A92D
:102AA0002846FFF72CFF41F288321221284600F019
:102AB00043F90646304606B070BD70B586B005468F
:102AC0000C46002601941120029040200390002023
:102AD00004904FF48060059001A92846FFF70FFF8E
:102AE00041F288321121284600F026F90646304688
:102AF00006B070BDF0B585B0064614461D460027E9
:102B000000940720019040200290002003904FF491
:102B10008060049069463046FFF7F1FE41F288324A
:102B20000721304600F008F90746384605B0F0BDE9
:102B300030B585B0044600250020009002200190A9
:102B4000C0200290002003904FF4806004906946FA
:102B50002046FFF7D4FE204600F0C0F9054628467F
:102B600005B030BD70B586B005460C460026019410
:102B700009200290C0200390002004904FF4806050
:102B8000059001A92846FFF7BAFE284600F0A6F9ED
:102B90000646304606B070BD30B585B00446002507
:102BA00000200090332001904020029000200390EC
:102BB0004FF48060049069462046FFF7A0FE41F282
:102BC00088323321204600F0B7F80546284605B084
:102BD00030BD70B586B005460C46002601940D2028
:102BE000029040200390002004904FF480600590F4
:102BF00001A92846FFF783FE41F288320D212846BD
:102C000000F09AF80646304606B070BD70B586B042
:102C100005460C460026002001900320029040202B
:102C20000390002004904FF48060059001A928468D
:102C3000FFF765FE22460321284600F0A5F9064667
:102C4000304606B070BD000030B585B004460025A2
:102C5000002000900C200190402002900020039062
:102C60004FF48060049069462046FFF748FE044A0E
:102C70000C21204600F060F80546284605B030BD1E
:102C800000E1F50570B586B005460C4600260194B6
:102C90001920029040200390002004904FF480609F
:102CA000059001A92846FFF72AFE41F28832192132
:102CB000284600F041F80646304606B070BD70B5B3
:102CC00086B005460C46002601941820029040204C
:102CD0000390002004904FF48060059001A92846DD
:102CE000FFF70DFE41F288321821284600F024F843
:102CF0000646304606B070BD01460E480068C00862
:102D00004FF47A73B0FBF3F041F2883300FB03F227
:102D100000BF101EA2F1010202D14FF00040704727
:102D2000486B00F080000028F3D040F2FF50886329
:102D30000020F4E7680000202DE9F04105460E462A
:102D4000174664480068C0084FF47A71B0FBF1F090
:102D500000FB07F800BFB8F10000A8F1010803D19B
:102D60004FF00040BDE8F081686B00F0450000289E
:102D7000F1D0686B00F0040010B10420A863F1E703
:102D8000686B00F0010010B10120A863EAE7284653
:102D9000FFF775FDB04201D00120E3E740F2FF509C
:102DA000A86300212846FFF773FD04464A482040E7
:102DB00008B90020D6E704F00040B0F1004F02D17E
:102DC0004FF00070CEE704F08040B0F1804F01D1A9
:102DD0004020C7E704F00050B0F1005F01D180202F
:102DE000C0E704F08050B0F1805F02D14FF48070F2
:102DF000B8E704F00060B0F1006F02D14FF400704A
:102E0000B0E704F08060B0F1806F02D14FF48060D1
:102E1000A8E704F08070B0F1807F02D14FF4006029
:102E2000A0E704F40000B0F5000F02D14FF4805089
:102E300098E704F48000B0F5800F02D14FF4005001
:102E400090E704F40010B0F5001F02D14FF4804069
:102E500088E704F48010B0F5801F02D14FF40040E1
:102E600080E704F48020B0F5802F02D14FF40030C9
:102E700078E704F40030B0F5003F02D14FF4802031
:102E800070E704F48030B0F5803F02D14FF40020A9
:102E900068E704F40040B0F5004F02D14FF4801011
:102EA00060E704F48040B0F5804F02D14FF4001089
:102EB00058E704F40050B0F5005F02D14FF48000F1
:102EC00050E704F00800082801D100054AE74FF454
:102ED000803047E76800002008E0FFFD0146154804
:102EE0000068C0084FF47A73B0FBF3F041F2883306
:102EF00000FB03F200BF101EA2F1010202D14FF04D
:102F000000407047486B00F045000028F3D0486B44
:102F100000F0040010B104208863F2E7486B00F071
:102F2000010010B101208863EBE740F2FF50886395
:102F30000020E6E768000020014612480068C0084B
:102F40004FF47A73B0FBF3F041F2883300FB03F2E5
:102F500000BF101EA2F1010202D14FF000407047E5
:102F6000486B00F045000028F3D0486B00F00400E7
:102F700010B104208863F2E740F2FF50886300201C
:102F8000EDE70000680000202DE9F04104460E4600
:102F9000174628480068C0084FF47A71B0FBF1F07A
:102FA00041F2883100FB01F800BFB8F10000A8F140
:102FB000010803D14FF00040BDE8F081606B00F0E4
:102FC00045000028F1D0606B00F0040010B104202F
:102FD000A063F1E7606B00F0010010B10120A06375
:102FE000EAE72046FFF74BFCB04201D00120E3E7BF
:102FF00040F2FF50A06300212046FFF749FC054640
:1030000005F4604018B9280C38800020D4E705F496
:103010008040B0F5804F02D14FF40050CCE705F46A
:103020000040B0F5004F02D14FF48050C4E74FF498
:103030008030C1E768000020014614480068C008DD
:103040004FF47A73B0FBF3F041F2883300FB03F2E4
:1030500000BF101EA2F1010202D14FF000407047E4
:10306000486B00F045000028F3D0486B00F00400E6
:1030700018B1402088630420F1E7486B00F040005D
:1030800008B1402088630020E9E7000068000020C4
:1030900010B50446012007490870FDF7C7F928B9A3
:1030A0000448007820F001000249087001480078C7
:1030B00010BD00004800002070B50646B46BE06B00
:1030C000406D012803D0206C406D01281ED140F2D4
:1030D000FF50216888632068C06B20F49D702168D0
:1030E000C863A06B40F08040A0632046FEF707FD58
:1030F0000546062D01D0052D05D12068FFF7A4FD5A
:10310000A16B0843A063012084F834002046FEF739
:10311000EAFB70BD70B50546AC6B0026206B8228BB
:103120000AD12068FFF790FD06462EB1A06B304310
:10313000A0632046FEF7D7FB2068C06A20F0080095
:103140002168C86240F2FF5021688863012084F83A
:1031500034002046FEF7A2FF70BD70B50646B46B82
:10316000E06B08B10020E063206CD8B92046FEF780
:10317000C6FC05460020A063012084F83400062D1B
:1031800001D0052D0ED12068FFF75EFDA16B08432D
:10319000A063A06B18B12046FEF74CFB02E020466E
:1031A000FEF7A1FB70BD0146886B0268D26B42F44A
:1031B00080720368DA63704770B50646B46B206CA2
:1031C00008B100202064E06BD8B92046FEF797FCD8
:1031D00005460020A063012084F83400062D01D0AC
:1031E000052D0ED12068FFF72FFDA16B0843A063CA
:1031F000A06B18B12046FEF71DFB02E02046FEF74B
:1032000072FB70BD2DE9F04188B004460E460025E2
:10321000FDF7FAFE8046002700200090019008216B
:103220002068FFF7C1FB05461DB1284608B0BDE880
:10323000F0815022125B11042068FFF77AFB0546EB
:103240000DB12846F2E74FF0FF30029008200390BE
:103250003020049002200590002006900120079065
:1032600002A92068FFF7F5FA2068FFF795FC0546EC
:103270000DB12846DAE713E02068406B00F4001037
:1032800028B12068FFF737FB4DF827007F1CFDF7BA
:10329000BBFEA0EB0800401C10B94FF00040C5E792
:1032A0002068406B40F22A4108400028E4D02068A2
:1032B000406B00F0080018B1082021688863B5E76A
:1032C0002068406B00F0020018B10220216888637A
:1032D000ACE72068406B00F0200018B12020216886
:1032E0008863A3E740F2FF502168886300980006D6
:1032F000009901F47F4140EA0120009901F47F0127
:1033000040EA1120009940EA1160706001980006BF
:10331000019901F47F4140EA0120019901F47F0104
:1033200040EA1120019940EA1160306000207DE7F9
:1033300030B58FB004460025012003902068FFF7C8
:10334000A2FA18B94FF080600FB030BD606C03284E
:103350001BD02068FFF7ECFB05460DB12846F3E7CC
:1033600000212068FFF794FA606704212068FFF7C6
:103370008FFAA06708212068FFF78AFAE0670C211E
:103380002068FFF785FA80210851606C032807D078
:1033900003A92068FFF73AFC05460DB12846D3E79C
:1033A000606C032820D0BDF80C1021655022125B00
:1033B00011042068FFF7D6FB05460DB12846C3E788
:1033C00000212068FFF764FA606604212068FFF797
:1033D0005FFAA06608212068FFF75AFAE0660C2120
:1033E0002068FFF755FA206704212068FFF750FA9C
:1033F000010DE16404A92046FEF776FA5020005B37
:1034000001040A4600232068FFF774FB05460DB14E
:10341000284699E7D4E90412A069CDE90012029088
:1034200094E80F00FFF748FA00208DE7F8B504464E
:10343000002000900026002700252068FFF7EEFA04
:1034400005460DB12846F8BD2068FFF7FEFA05468F
:103450006DB30021A16425E00098411C00914FF656
:10346000FF71884202D14FF08070ECE700212068A4
:10347000FFF75FFA054615B14FF08050E3E70021F2
:103480002068FFF773FA054615B14FF08050DAE770
:1034900000212068FFF7FCF90646012080EAD6707B
:1034A00080F00107002FD7D00020606433E00121B5
:1034B000A16424E00098411C00914FF6FF718842FE
:1034C00002D14FF08070BEE700212068FFF731FA8B
:1034D00005460DB12846B6E74FF080412068FFF75A
:1034E00045FA05460DB12846ADE700212068FFF7F3
:1034F000CFF90646012080EAD67080F00107002F40
:10350000D8D006F08040B0F1804F02D10120606435
:1035100001E000206064002095E770B504460025B6
:10352000A66A00BF05E02068FFF7E5F946F8250028
:103530006D1C082DF7D3A06A2030A062002070BD5A
:1035400070B504460D46002615B94FF0006070BDF9
:103550005022125B11042068FFF73BFB06460EB1B8
:103560003046F4E700212068FFF792F92860002038
:10357000EDE77CB504460020009001900025002175
:103580002068FFF785F900F00070B0F1007F02D1EC
:103590004FF400607CBD69462046FFF733FE0546C8
:1035A0000DB12846F6E7019800F4803098B150221A
:1035B000125B11042068FFF7BCF905460DB12846DF
:1035C000E8E700212068FFF70CFA05460DB1284610
:1035D000E0E70020DEE74FF08060DBE77CB50446E3
:1035E000002000900190002500212068FFF750F98D
:1035F00000F00070B0F1007F02D14FF400607CBD9C
:1036000069462046FFF7FEFD05460DB12846F6E760
:10361000019800F4802098B15022125B11042068B8
:10362000FFF787F905460DB12846E8E70221206833
:10363000FFF7D7F905460DB12846E0E70020DEE7A1
:103640004FF08060DBE770B504460025266A00BFB6
:1036500005E006EB85012068FFF765F96D1C082D74
:10366000F7D3206A20302062002070BD10B50446D8
:10367000012006490870FCF7E5FE20B92046FFF757
:1036800007FD024908700148007810BD480000207D
:10369000F0B589B007460D46144601261648007855
:1036A00000F0010010B1032009B0F0BD35B1012DCB
:1036B00006D0022D0BD0032D18D10FE0002617E005
:1036C00001A8FCF7A9FE07982060002610E001A8D9
:1036D000FCF7A2FE08982080002609E001A8FCF76C
:1036E0009BFE0898400A2060002601E0042600BFE7
:1036F00000BF3046D8E70000480000202DE9F04721
:1037000081460D4616461F464FF0010800201A4913
:1037100008603A4631462846FCF7B2FE40BBFDF74A
:1037200073FC044600BF1448006830B9FDF76CFC18
:10373000001B47F230518842F5D30F48006810B99A
:103740004FF0010814E000200B490860FDF75CFC15
:10375000044605E0FCF76AFE10B94FF0000806E0E9
:10376000FDF752FC001B47F230518842F2D300BFF4
:103770004046BDE8F08700005000002010B5044628
:103780002046FFF785FC10BD2DE9F04781460D4628
:1037900016461F464FF0010800201A4908603A46B5
:1037A00031462846FCF786FE40BBFDF72DFC04465B
:1037B00000BF1448006830B9FDF726FC001B47F233
:1037C00030518842F5D30F48006810B94FF0010816
:1037D00014E000200B490860FDF716FC044605E0E4
:1037E000FCF724FE10B94FF0000806E0FDF70CFCD2
:1037F000001B47F230518842F2D300BF4046BDE87B
:10380000F08700004C000020704710B5FDF702FC67
:1038100010BD000000B593B0302107A8FCF710FDE3
:10382000142102A8FCF70CFD00BF002001902348E2
:10383000006840F08050214908600846006800F0A8
:103840008050019000BF00BF00BF002001901C48C5
:10385000006840F440401A4908600846006800F4D7
:103860004040019000BF00BF012007900004089075
:1038700002200D9041050E9104210F9164211091B9
:10388000022111910521129107A8FDF7AFFD08B1A2
:10389000FCF7CAFE0F200290022003900020049043
:1038A0004FF48050059000200690032102A8FDF7F8
:1038B00085FC08B1FCF7B8FE13B000BD40380240EB
:1038C000007000401448006840F47000124908601D
:1038D0001248006840F001001049086000200F49BC
:1038E000083108600D4800680D4908400B49086020
:1038F0000C48091D0860081F006820F48020091F7B
:103900000860002005490C3108604FF00060024952
:10391000803908607047000088ED00E00038024000
:10392000FFFFF6FE1030002410B50248FEF778FDC8
:1039300010BD00006002002000220268234B984264
:103940000BD0B0F1804F08D0214B984205D0214BCD
:10395000984202D0204B984201D1012300E000237D
:103960001BB122F070024B681A43184B984214D0D6
:10397000B0F1804F11D0164B98420ED0154B9842A3
:103980000BD0154B984208D0144B984205D0144BDD
:10399000984202D0134B984201D1012300E000234A
:1039A0001BB122F44072CB681A4302608B68C36279
:1039B0000B688362054B984201D1012300E000238C
:1039C0000BB10B69036301234361704700000140A1
:1039D0000004004000080040000C0040004001408E
:1039E000004401400048014030B50C460021816888
:1039F00021F47F4142EA032525432943816030BDFC
:103A00000A460021816821F0700142F00703194342
:103A10008160704730B50B46144600210022026ACF
:103A2000056A25F001050562816921F0F00141EA8E
:103A3000041122F00A021A438161026230BD30B5DE
:103A40000B46144600210022056A25F01005056288
:103A50008169026A21F4704141EA043122F0A00236
:103A600042EA03128161026230BD00BFFEE702E05C
:103A700008C8121F08C1002AFAD1704770470020F9
:103A800001E001C1121F002AFBD1704770B5044646
:103A90000D460020E070401E20632946204601F0BC
:103AA00019FC08B1042070BD04F2322001F0C5FBFE
:103AB0004AF65521884201D00320F4E794F83400F7
:103AC000E92807D094F83400EB2817D13620005DA0
:103AD000902813D104F16A0001F0A3FB20F07F408D
:103AE0000749884201D10020DDE704F1860001F09A
:103AF00098FB0449884201D10020D4E70220D2E794
:103B00004641540046415433024600E0521C1078AE
:103B100010B110788842F9D11078704730B502465C
:103B20000B460020044601461CE01A4800EB011039
:103B30000068A8B1174800EB011000681568A8429A
:103B40000FD1144800EB011040689568A84208D1D5
:103B5000104800EB011080685569A84201D103E0CC
:103B60000124491C0229E0D300BF022906D10CB967
:103B7000022B01D1002030BD1220FCE733B90548EB
:103B800000EB01108089B0F5807F01D11020F2E7B1
:103B90000020F0E7000B0120014600200BE0074A5F
:103BA00002EB001212688A4204D10022034B03EB9D
:103BB00000131A60401C0228F1D37047000B01204B
:103BC000F0B503460D461E68D86A021D680A77895B
:103BD000B0FBF7F400BF02CA09B90020F0BD8C4267
:103BE00000D202E0641A121DF5E700BF10682044FD
:103BF000F4E70246891E9069801E884201D80020A1
:103C000070475389D06A01FB0300F9E72DE9F047BB
:103C100080460C4604F11A0001F00FFB10B10020A1
:103C2000BDE8F087207800F03F00401E00EB8001E7
:103C300001EBC0054FF00109002621E01849895D1C
:103C4000081901F0FAFA0746B9F1000F11D0FF2D5B
:103C50000BD2384600F054FF824629466D1C38F8D6
:103C6000110000F04DFF824501D00020D8E7B94691
:103C700005E04FF6FF70874201D00020D0E7761CA8
:103C80000D2EDBD3207800F0400038B1B9F1000FE1
:103C900004D038F8150008B10020C1E70120BFE7C3
:103CA000185700082DE9F04782468946DAF80040A7
:103CB000B9F1000F06D1276917B1A069B84215D82C
:103CC000012713E04946504601F0A4F90646022EAA
:103CD00002D20120BDE8F087701C08B93046F9E730
:103CE000A069B04201D93046F4E74F463D4600BFD7
:103CF0006D1CA069A84204D80225BD4201D900204C
:103D0000E8E72946504601F085F9064606B909E07C
:103D1000012E01D0701C08B93046DBE7BD42E7D167
:103D20000020D7E700BF4FF0FF322946204601F0C0
:103D3000EBFA8046B8F1000F08D1B9F1000F05D0B9
:103D40002A464946204601F0DFFA8046B8F1000FC6
:103D50000DD12561D4E90510801E814202D8606929
:103D6000401E6061207940F00100207107E0B8F149
:103D7000010F02D14FF0FF3000E001200546284638
:103D8000A8E700002DE9F34F83B08146049800684E
:103D90000190D9F80000D0F80CA000200646054696
:103DA00000BF28466D1C01990C5C202C00DA41E014
:103DB0002F2C01D05C2C0AD100E06D1C0198405DD5
:103DC0002F28FAD00198405D5C28F6D032E0FF2E13
:103DD00003D3062005B0BDE8F08FE4B2812C13DBDD
:103DE000E0B2FE2810DC28466D1C01990F5C07EB41
:103DF000042084B2402F01DB7E2F05DDA12F01DBE3
:103E0000FE2F01DD0620E5E70121204600F03AFE05
:103E100004460CB90620DDE7802C06DA21466FA0A7
:103E2000FFF772FE08B10620D4E73046761C2AF868
:103E30001040B6E700BF0198411904980160202C9A
:103E400001DA042000E00020804608E0701E3AF805
:103E50001040202C02D02E2C00D002E0761E002E26
:103E6000F4D100BF00202AF816000EB90620B1E7F1
:103E70000B22202109F1240001F023FA002500E0A3
:103E80006D1C3AF815002028FAD03AF815002E28B3
:103E9000F6D00DB148F0030800E0761E26B1701E82
:103EA0003AF810002E28F8D10020074602904FF073
:103EB000080B00BF28466D1C3AF8104004B963E0B7
:103EC000202C03D02E2C04D1B54202D048F0030898
:103ED000F0E70298584501D2B54214D1BBF10B0F5F
:103EE00002D148F003084FE0B54201D048F0030882
:103EF000B54200D948E03546082002904FF00B0B40
:103F0000B806070ED6E7802C09DB204600F0F8FD46
:103F10000021009000F0B6FD044648F00208FF2C96
:103F200011DDABF101000299884204D848F0030882
:103F3000CDF808B0BEE722120298411C029109F1A7
:103F400024010A5419E024B1214627A0FFF7DCFD23
:103F500018B15F2448F003080FE0412C04DB5A2C11
:103F600002DC47F0020708E0612C06DB7A2C04DC57
:103F700047F00107A4F1200084B20298411C02918D
:103F800009F124010C5495E700BF99F82400E528B5
:103F900002D1052089F82400BBF1080F01D1B80631
:103FA000070E07F00C000C2803D007F003000328CD
:103FB00001D148F0020808F0020058B907F00300E8
:103FC000012801D148F0100807F00C00042801D1A5
:103FD00048F0080889F82F800020FBE6222A3A3CA6
:103FE0003E3F7C7F000000002B2C3B3D5B5D0000D2
:103FF00010B50246531E1A46022B17D20C4B03EB88
:1040000002139989B1F5807F00D10021002901DDDB
:104010004B1E99B2064B03EB0213998121B9002381
:10402000034C04EB02142360002000E0022010BDCA
:10403000000B01202DE9F04104460E46D4F8008023
:104040000021204600F0CBF90546EDB9002700BF5E
:104050004046E16901F03EF9054605B113E0206AEA
:104060000078E52802D0206A007820B9781C07463D
:10407000B04201D107E000270121204600F088F876
:104080000546002DE4D000BF042D00D107252846A9
:10409000BDE8F0812DE9F0470446D4F800A00021E6
:1040A000204600F09CF9064616B13046BDE8F08780
:1040B0004FF0FF08C1464FF0FF30206300BF50466D
:1040C000E16901F007F9064606B15EE0206A05786D
:1040D0000DB9042659E0206AC07A00F03F07A771A5
:1040E000E52D04D007F0080038B10F2F05D04FF0B0
:1040F000FF084FF0FF30206340E00F2F22D12F2028
:10410000005D00F0400098BB05F0400038B1206A27
:1041100090F80D9005F0BF05A846606920634545FD
:104120000CD1206A407B484508D1216ADAF80C009E
:10413000FFF76CFD10B1A8F1010000E0FF2000F0D6
:10414000FF081BE0B8F1000F05D1206A01F029FA41
:10415000484500D119E02F20005D00F0010040B972
:104160000B2204F12401206A01F08CF808B90CE05C
:1041700004E04FF0FF084FF0FF302063002120469D
:1041800000F006F80646002E99D000BF30468DE7B5
:104190002DE9F047044689462568606900F120074B
:1041A000E06910B1B7F5001F02D30420BDE8F08725
:1041B000C7F30800002868D1E069401CE061A069ED
:1041C00038B92889B0EB571F5FD80020E061042080
:1041D000ECE76889401E00EA5720002855D12046A8
:1041E000A16900F017FF0646012E01D80220DDE785
:1041F000701C08B90120D9E7A869B0423FD8B9F1CD
:10420000000F03D10020E0610420CFE72046A16920
:10421000FFF748FD06460EB90720C7E7012E01D17A
:104220000220C3E7701C08B90120BFE7284601F04F
:1042300011FA08B10120B9E74FF40072002105F12D
:10424000340001F03EF84FF0000831462846FFF7F1
:10425000D0FC28630CE00120E870284601F0FAF950
:1042600008B10120A2E708F10108286B401C28636F
:1042700068894045EFD8286BA0EB08002863A66149
:1042800031462846FFF7B5FCE0616761C7F30801D6
:1042900005F1340008442062002087E72DE9FE4F35
:1042A000044626682F20005D00F0A00010B1062013
:1042B000BDE8FE8F4FF0000901E009F10109F06847
:1042C00030F819000028F8D10C2204F124016846C6
:1042D00000F0EAFF9DF80B0000F0010028B3402138
:1042E0002F2001554FF001080EE04346694604F1C6
:1042F0002400F26800F028FE2046FFF7CBFE0546BA
:1043000005B104E008F10108B8F1640FEDD300BF76
:10431000B8F1640F01D10720CAE7042D01D0284667
:10432000C6E79DF80B102F2001559DF80B0000F0FB
:10433000020030B109F10C000D21B0FBF1F0401C7E
:1043400000E00120074639462046FFF773FE054688
:104350004DBB781E071E26D06069A0EB4711204692
:1043600000F03DF80546F5B904F1240001F019F913
:10437000824600BF3046E16900F0ACFF054605B15A
:1043800010E0FAB2216A5346F06801F059F80120B2
:10439000F07000212046FFF7FBFE054615B9781E98
:1043A000071EE7D100BFC5B93046E16900F092FFB2
:1043B000054695B920220021206A00F082FF0B22D9
:1043C00004F12401206A00F06FFF2F20005D00F04F
:1043D0001800216A08730120F070284668E72DE96B
:1043E000F04104460D462668B5F5001F02D205F0DF
:1043F0001F0010B10220BDE8F0816561A7681FB9F8
:104400003078032800DBB76A47B93089B0EB551F15
:1044100001D80220EFE7B06AE0611CE070894FEA42
:10442000402811E03946204600F0F4FD0746781C8C
:1044300008B90120DFE7022F02D3B069B84201D8E2
:104440000220D8E7A5EB08054545EBD239463046B2
:10445000FFF7CFFBE061A761E06908B90220CAE776
:10446000E06900EB5520E061C5F3080106F1340076
:10447000084420620020BEE770B5044600250848C5
:10448000005D58B901200649085501F10802105D88
:104490000A1D52F82420116888470546284670BD39
:1044A000200B01202DE9F04104460D461646064931
:1044B000085D091F51F8241032460B6929469847B8
:1044C00007463846BDE8F081280B01202DE9F04170
:1044D00004460D4616461F460749085D091F51F858
:1044E00024103B463246D1F808C02946E0478046B2
:1044F0004046BDE8F0810000280B012070B504465D
:10450000044A105D121F52F824205168884705465E
:10451000284670BD280B01202DE9F04104460D46C8
:1045200016461F460749085D091F51F824103B46EF
:104530003246D1F80CC02946E04780464046BDE8E7
:10454000F0810000280B0120002100E0491C022915
:1045500005D2064800EB011000680028F6D10229B8
:1045600001D0012070470020FCE70000000B012073
:1045700038B50546284600F034FA044664B9694661
:10458000284601F090F8044634B92869FFF730FD59
:1045900004460CB900202860204638BDF7B582B02B
:1045A00016460398019001A800F0A6FD0546002DCF
:1045B00002DA0B2005B0F0BD0F4850F8254024B1B9
:1045C0002046FFF7E9FA00202070029810B1002081
:1045D000029908700849029841F82500029808B12C
:1045E000012E01D00020E5E7002202A903A800F077
:1045F000D9FA07463846DDE76C0000202DE9F74F71
:10460000ADF5107D0446164624B909200DF5137D3D
:10461000BDE8F08F06F03F06324682A991A800F06F
:10462000C1FA0546002D7CD18298839001A8829919
:10463000C86083A8919900F035FC05468DB99DF8B6
:104640003B0200F0800008B106250AE026F00100D8
:1046500008B1012000E00020014683A8FFF75EFAC0
:10466000054606F01C0000285CD06DB1042D08D171
:10467000FFF76AFF18B183A8FFF710FE00E01220D1
:10468000054646F008060AE09DF8120200F0110007
:1046900008B1072503E006F0040000B10825002D4D
:1046A00051D106F0080000284DD000F023FD819084
:1046B0008B9901F10E00819900F061FF8B9901F156
:1046C0001600819900F05BFF20208B99C8728B99AE
:1046D000829800F093FD814600228B99829800F029
:1046E0003CFF8B9901F11C00002100F048FF0120E4
:1046F0008299C870B9F1000F25D08298006B819023
:104700000022494683A800F0DBFE0546DDB9819909
:10471000829800F0DFFD0546A9F101008299086149
:1047200011E075E07DB99DF8120200F0100008B1AB
:10473000042508E006F0020028B19DF8120200F0FE
:10474000010000B10725BDB906F0080008B146F028
:1047500040068298006B60628B98A06226F0010090
:1047600008B1012000E00020014683A800F0E8FC29
:104770002061206900B90225002D57D18B998298BC
:1047800000F03CFDA0608B9901F11C0000F049FD98
:10479000E0600020E062829820608298C088A0805B
:1047A0002675002060752062A0614FF40072002120
:1047B00004F1300000F085FD06F0200040B3E06811
:1047C00030B3E068A061829840894FEA402AA76828
:1047D000D4F80C800CE03946204600F01BFC07465C
:1047E000012F00D80225781C00B90125A8EB0A0882
:1047F0000DB9D045EFD8E76155B9C8F3080038B115
:1048000039468298FFF7F5F9B0F1000B01D1022586
:104810000CE00BEB58202062226A82994878012331
:1048200004F13001FFF752FE00B101250DB1002067
:1048300020602846EAE62DE9FF4F85B0044615467C
:104840009A46DDF818B00020CAF8000003A92046F7
:1048500000F029FF0490049810B9607D049018B10D
:10486000049809B0BDE8F08F207D00F0010008B980
:104870000720F6E7A169E068401A01900198854297
:1048800000D9019DA8E0208BC0F30800002874D156
:1048900003984089401EA16900EA5129B9F1000F2F
:1048A0001FD1A06910B9A06802900CE0E06A28B19D
:1048B0002046A169FFF784F9029004E02046E169EF
:1048C00000F0A8FB02900298022802D20220607534
:1048D000C7E70298401C10B901206075C1E7029833
:1048E000E061E1690398FFF784F9064616B90220F2
:1048F0006075B6E74E444FEA5528B8F1000F29D04D
:1049000009EB080003994989884203D90398408933
:10491000A0EB090803994878434632465946FFF709
:10492000D5FD10B1012060759BE7207D00F080006F
:1049300068B1206A801B404509D2216A891B0BEBB4
:1049400041204FF4007204F1300100F0ADFC4FEA59
:10495000482737E0206AB04220D0207D00F0800058
:1049600080B1226A03994878012304F13001FFF7EE
:10497000D3FD18B10120607573E710E0207D00F0D1
:104980007F002075039948780123324604F13001F5
:10499000FFF79CFD10B10120607562E72662208B55
:1049A000C0F30800C0F50077AF4200D92F46208B36
:1049B000C0F3080204F1300011183A46584600F0DE
:1049C00073FC00BFBB44A0693844A061DAF8000062
:1049D0003844CAF80000ED1B002D7FF454AF0020CE
:1049E0003FE7F8B504466946204600F05CFE0646FF
:1049F000002E44D1207D00F0400000283FD0207DD3
:104A000000F0800070B1226A00994878012304F117
:104A10003001FFF781FD08B10120F8BD207D00F0D5
:104A20007F00207500F066FB0746616A009800F081
:104A300051FC06461EBBA56AE87A40F02000E872E9
:104A40002946A268206800F088FD05F11C00E16895
:104A500000F095FD394605F1160000F090FD0021AB
:104A600005F1120000F097FD01200099C870009830
:104A700000F0A8FD0646207D00F0BF0020753046FE
:104A8000CBE700002DE9F04102460F46802A01DA0B
:104A900010462FE01FB1184B43F2BF4602E0174B00
:104AA00043F2BF460025102416E0A6EB050C0CEBE4
:104AB000DC7805EB68014FEA410C33F81CC09445E3
:104AC00000D10BE04FEA410C33F81CC0944501DAE9
:104AD0000D4600E00E46641E002CE6D100BF34B146
:104AE0004FF0010C0CEB410C33F81CC001E04FF00F
:104AF000000C6046BDE8F081422A010842570008D8
:104B000030B5B0F5805F01DA244D00E0244D294630
:104B100000BF31F8022B0AB1904200DA3CE031F8D4
:104B2000023B1C12DBB2D518854230DD092C2CD299
:104B3000DFE804F005090F13171B1F232700851A50
:104B400031F8150021E0851A05F00105451BA8B2D2
:104B50001BE0A0F11005A8B217E0A0F12005A8B253
:104B600013E0A0F13005A8B20FE0A0F11A05A8B239
:104B70000BE000F10805A8B207E0A0F15005A8B2CB
:104B800003E0A0F5E355A8B200BF00BF04E0002C8D
:104B9000BFD101EB4301BCE700BF30BD42FD0108BE
:104BA00034FF01082DE9F74F8AB000210B9801600E
:104BB0000A9800F0A1FA08900898002803DA0B2060
:104BC0000DB0BDE8F08FB349089851F820400CB9FA
:104BD0000C20F5E70B9804600C9800F0FE000C9098
:104BE000207878B16078FFF789FC814609F00100F0
:104BF00040B90C9820B109F0040008B10A20DFE7A1
:104C00000020DDE700202070089860706078FFF7D2
:104C100033FC814609F0010008B10320D0E70C986D
:104C200020B109F0040008B10A20C9E7002739467D
:104C30002046FEF72BFF0546022D01D02EDA2DE08F
:104C4000002614E04FF4DF7000EB061104F134008D
:104C5000084409900998007920B10998083000F0BB
:104C6000E0FA00E0002002A941F82600761C042E9C
:104C7000E8D3002606B1761E00BF02A850F82670C1
:104C800027B139462046FEF701FF00E00320054624
:104C9000022D03DB701C06460428EED3042D01D13F
:104CA00001208DE7022D01DB0D2089E704F13F0093
:104CB00000F0C3FAB0F5007F01D00D2080E704F1C9
:104CC0004A0000F0BAFA8046B8F1000F04D104F1AE
:104CD000580000F0A6FA8046C4F81C804420005D0D
:104CE000A070A078012804D0A078022801D00D205F
:104CF00066E7A07808FB00F84120005D60816089CC
:104D000018B16089411E084008B10D2058E704F130
:104D1000450000F092FA2081207A00F00F0008B1DF
:104D20000D204DE704F1470000F087FA8246BAF102
:104D3000000F04D104F1540000F073FA824604F12C
:104D4000420000F07AFA0190019808B90D2037E787
:104D500001984044218900EB111007900798824583
:104D600001D20D202CE70798AAEB00006189B0FB67
:104D7000F1FBBBF1000F01D10D2021E703254FF618
:104D8000F570834500D8022540F6F570834500D8BC
:104D900001250BF10200A06127620198384460628E
:104DA00007983844E062032D13D104F15E0000F04F
:104DB00044FA08B10D2003E7208908B10D20FFE671
:104DC00004F1600000F02DFAA062A0698000069056
:104DD00014E0208908B90D20F2E6606A4044A06220
:104DE000022D02D1A069400007E0207E00F0010002
:104DF000A16901EB410100EB51000690E1690698C1
:104E000000F2FF10B1EB502F01D20D20D8E64FF089
:104E1000FF306061206180202071032D2CD104F1CE
:104E2000640000F00AFA012826D1791C204600F01F
:104E300051FA08BB0020207104F2322000F0FDF985
:104E40004AF65521884217D104F1340000F0E9F9FF
:104E50001149884210D104F5067000F0E2F90F49BB
:104E6000884209D104F5077000F0DBF9606104F5B0
:104E7000087000F0D6F92061257009480088401CB0
:104E800080B207490880E0802046FEF785FE0020BA
:104E900096E600006C00002052526141727241613E
:104EA000700000202DE9F34104462646D6F8008024
:104EB00002E00198401C0190019800782F28F8D05A
:104EC000019800785C28F4D00020B0600198007848
:104ED000202808D280212F20015500212046FFF7ED
:104EE0007EFA05462CE000BF01A92046FEF74AFFE6
:104EF000054605B123E02046FFF7CCF805462F20F4
:104F0000075D3DB1042D04D100BF07F0040000B9D6
:104F1000052514E007F0040000B110E0B07900F0BE
:104F2000100008B905250AE0A08AC0F3080208F1BC
:104F300034001118404600F061F9B060D4E700BFBA
:104F40002846BDE8FC8100002DE9FF4F83B00746ED
:104F500091461E460B223846049900F0A5F9052E0D
:104F600019D9B04612E039F802BB00250CE05846CA
:104F700068F35F0080464FEA6B0B08F4803010B195
:104F8000234888EA00086D1C102DF0D3B9F8000002
:104F90000028E8D14646072500BF06F00F0000F1C3
:104FA000300ABAF1390F03DD0AF1070000F0FF0AF9
:104FB00028466D1E01A901F800A03609002EECD18B
:104FC0007E20485500240BE0385D812807DB385DE2
:104FD000FE2804DC681EA04200D106E0641C641CAC
:104FE000AC4202D2385D2028EED100BF00BF082DB0
:104FF00004D228466D1C01A9095C00E0202120464E
:10500000641C3954082CF2D307B0BDE8F08F0000BF
:10501000211001002DE9F04781460C46D9F80050D7
:10502000022C02D3A869A04202D84FF001085EE02A
:105030004FF0FF382878012804D002282CD003280C
:1050400051D13CE0264606EB5606686A00EB562135
:10505000284600F03FF900B148E03046761CC0F326
:10506000080105F13400475C686A00EB56212846C8
:1050700000F030F900B139E0C6F3080105F1340061
:10508000405C47EA002704F0010008B1380901E05C
:10509000C7F30B00804629E0686A00EB142128461C
:1050A00000F018F900B121E040F2FF1101EA4402DA
:1050B00005F13401501800F0C0F8804616E0686A27
:1050C00000EBD411284600F005F900B10EE040F2E3
:1050D000FF1101EA840205F13401501800F0A1F833
:1050E00020F0704802E04FF0010800BF00BF4046CA
:1050F000BDE8F0870020704770B502464FF0FF30E2
:105100001568DDB1116800E0491C0D78202D02D32F
:105110000D783A2DF8D10D783A2D0ED1146814F887
:10512000015BA5F130030A2B06D28C4204D11BB9D6
:1051300018464D1C2946156070BD002000BFFBE7D6
:1051400010B502460B46002116E02B4800EB01107B
:1051500000681468A0420ED1274800EB0110406897
:105160009468A04207D1244800EB0110806854697C
:10517000A04200D102E0491C0229E6D300BF022967
:1051800022D1002100E0491C022905D21A4800EB77
:10519000011000680028F6D1022901D1002010BDBD
:1051A000154C04EB011410682060134C04EB01143F
:1051B00090686060104C04EB01145069A0600020FE
:1051C0000D4C04EB0114A08133B10B4800EB01102E
:1051D000808908B10020E2E713B14FF4807004E049
:1051E000054800EB01108089401C034C04EB0114BE
:1051F000A081481CD3E70000000B012070B50546D4
:105200000C4604F11A0000F018F806462878032826
:1052100005D104F1140000F010F846EA00463046CB
:1052200070BD0146C8788A7842EA00204A7842EA8E
:1052300000200A7842EA00207047014648780A7840
:1052400042EA002070470000FBF7F0FEFEF7E2FAAA
:10525000FDF726FAFDF7EAF9FDF7B4F9FDF7A2FA32
:10526000FDF78EFAFDF70EFA012211460448FBF70E
:10527000C5FEC820FBF7C0FDFBF70AFA00BFFEE73A
:1052800000040240F0B503461D460C46002000BF56
:1052900015F8017B14F801CBA7EB0C00561E321E4B
:1052A00001D00028F4D0F0BD30B503460C463AB129
:1052B00000BF14F8015B03F8015B551E2A1EF8D1EC
:1052C00030BD10B5034600BF03F8011B541E221E5B
:1052D000FAD110BD70B504460D460026206BA842D9
:1052E00010D0204600F0B6F906465EB9607801237A
:1052F0002A4604F13401FFF7E9F810B14FF0FF3509
:1053000001262563304670BD2DE9F04704460D4661
:1053100016464FF00209022D74D3A069A84271D934
:105320002078012804D0022849D003280DD15EE05E
:105330002F4607EB5707606A00EB57212046FFF71F
:10534000C9FF8146B9F1000F00D075E038467F1CD7
:10535000C0F3080104F1340001EB000805F001007E
:1053600028B1F1B298F8000061F31F1000E0304658
:1053700088F800000120E070606A00EB57212046A9
:10538000FFF7A8FF8146B9F1000F00D054E0C7F342
:10539000080104F1340001EB000805F0010010B130
:1053A000C6F3071006E098F8000000F0F000C6F31E
:1053B0000321084388F800000120E0703CE0606AA7
:1053C00000EB15212046FFF785FF8146B9F1000F5C
:1053D00000D031E0B1B240F2FF1202EA450304F11D
:1053E0003402981800F0D7F80120E07024E0606AD9
:1053F00000EBD5112046FFF76DFF8146B9F1000F94
:1054000001D019E019E040F2FF1101EA850204F130
:1054100034015018FFF705FF66F31B00064640F203
:10542000FF1101EA850204F134015018314600F001
:10543000A6F80120E07000BF00BF4846BDE8F08735
:105440002DE9F04707460C461546984684F80D802E
:105450000F20E07200202073002104F11A0000F0F8
:105460009AF8681E00EB800101EBC0090020064697
:10547000824600BF4FF6FF70864204D0484609F1CD
:10548000010937F810600D4911F80A100819314662
:1054900000F081F80EB94FF6FF760AF1010082465E
:1054A0000D28E7D34FF6FF70864202D037F8190077
:1054B00008B945F040052570BDE8F0871857000889
:1054C0002DE9F04781460E4617464FF00008D9F8FF
:1054D0000040022E02D3A069B04202D80220BDE8EB
:1054E000F08767B100BF4FF0FF3239462046FFF723
:1054F0000BFF8046B8F1000F01D04046EFE700BF38
:1055000031464846FFF786FD054605B922E0012DE4
:1055100001D10220E3E7681C08B90120DFE700227F
:1055200031462046FFF7F0FE8046B8F1000F01D06B
:105530004046D4E7D4E90510801E814206D2606956
:10554000401C6061207940F0010020712E46A06966
:10555000B042D5D800BF0020C1E770B506460C4662
:105560001546A9B204F11A0000F015F830780328A6
:1055700004D1290C04F1140000F00DF870BD00F8FE
:10558000011B090A00F8011B090A00F8011B090A9E
:1055900000F8011B704700F8011B091200F8011BFD
:1055A000704730B5014600200B2200BF431003EBCB
:1055B000C01411F8015B6319D8B2531E1A1EF5D13D
:1055C00030BD000070B50446204600F043F80546A3
:1055D000002D38D1207803282ED1207901282BD115
:1055E0004202002104F13400FFF76BFE4AF6552118
:1055F00004F23220FFF7CFFF144904F13400FFF723
:10560000BEFF134904F50670FFF7B9FF04F50770F4
:105610006169FFF7B4FF04F508702169FFF7AFFF78
:10562000206A401C20636078012304F13401226B5E
:10563000FEF772FF00202071607800221146FEF70D
:1056400031FF00B10125284670BD00005252614172
:10565000727241612DE9F04104460027E078F8B10B
:10566000256B607801232A4604F13401FEF754FFCC
:1056700008B1012714E00020E070606A281AE1698F
:1056800088420DD2A67809E0E069054460780123DC
:105690002A4604F13401FEF73FFF761E022EF3D2B4
:1056A0003846BDE8F08170B504460D4684B12068E7
:1056B00070B12068007858B12068C088A1888842FD
:1056C00006D121684878FEF719FF00F0010018B1F3
:1056D00000202860092602E0206828600026304665
:1056E00070BD00006D3600087D370008FD360008EB
:1056F00089370008913600080006101600061016BB
:105700000000000000000000010203040607080971
:10571000000000000102030401030507090E101236
:105720001416181C1E0001000400100040000001A7
:105730000002000001000200040008001000200028
:105740000000A700B1A1AF00C2A1B00058A2B100F3
:10575000D3A1B70050A1D700D1A1F700D2A1C702B1
:10576000BEA3C902BCA3CA02BDA3CB02BFA3CD0284
:10577000C5A1D902BBA3910344A3920345A39303FC
:1057800046A3940347A3950348A3960349A397030D
:105790004AA398034BA399034CA39A034DA39B03DD
:1057A0004EA39C034FA39D0350A39E0351A39F03AD
:1057B00052A3A00353A3A10354A3A30355A3A4037B
:1057C00056A3A50357A3A60358A3A70359A3A80349
:1057D0005AA3A9035BA3B1035CA3B2035DA3B30304
:1057E0005EA3B4035FA3B50360A3B60361A3B703CD
:1057F00062A3B80363A3B90364A3BA0365A3BB039D
:1058000066A3BC0367A3BD0368A3BE0369A3BF036C
:105810006AA3C0036BA3C1036CA3C3036DA3C4033A
:105820006EA3C5036FA3C60370A3C70371A3C80308
:1058300072A3C90373A3132056A1142058A11820E2
:10584000A5A11920A6A11C20A7A11D20A8A1252043
:105850004CA126204BA1272045A13220ACA1352008
:10586000ABA13B20B0A1AC20E1A303214AA20521BA
:10587000C1A109214BA26021B9A26121BAA2622172
:10588000BBA26321BCA26421BDA26521BEA2662188
:10589000BFA26721C0A26821C1A26921C2A2902132
:1058A000F6A19121F4A19221F7A19321F5A19621CE
:1058B000F8A19721F9A19821FBA19921FAA115221C
:1058C00041A21A22D4A11E22DBA11F22E8A120227C
:1058D000E7A12322FDA12522FCA12922E4A12A225D
:1058E000E5A12B22ECA12E22EDA13422EFA135223D
:1058F000EEA15222DCA16022DAA16122DDA16622A2
:10590000D8A16722D9A19522F2A19922F3A1A522BB
:10591000E6A1BF22E9A1002577A2022578A20C25E5
:105920007AA210257BA214257CA218257DA21C2515
:1059300075A2242574A22C2573A2342572A23C25BD
:1059400071A25025A4A25025F9F95125F8F9522544
:10595000E6F95325EFF95425DDF95525E8F95625E3
:10596000F1F95725DFF95825ECF95925F5F95A25AC
:10597000E3F95B25EEF95C25F7F95D25E5F95E2590
:10598000A5A25E25E9F95F25F2F96025E0F9612518
:10599000A7A26125EBF96225F4F96325E2F96425F4
:1059A000E7F96525F0F96625DEF96725EDF9682543
:1059B000F6F96925E4F96A25A6A26A25EAF96B25B4
:1059C000F3F96C25E1F96D257EA26D25FAF96E25B6
:1059D000A1A26E25FBF96F25A3A26F25FDF9702505
:1059E000A2A27025FCF97125ACA27225ADA2732587
:1059F000AEA274255AA1812562A2822563A28325C5
:105A000064A2842565A2852566A2862567A28725CE
:105A100068A2882569A2892570A28A256FA28B2594
:105A20006EA28C256DA28D256CA28E256BA28F2572
:105A30006AA29325FEF9942576A2952579A2A02540
:105A4000BDA1A125BCA1B225B6A1B325B5A1BC2598
:105A5000BFA1BD25BEA1C625BBA1C725BAA1CB2527
:105A6000B3A1CE25B7A1CF25B4A1E225A8A2E325F5
:105A7000A9A2E425ABA2E525AAA20526B9A106267E
:105A8000B8A14026F0A14226F1A1003040A101308A
:105A900042A1023043A10330B2A1083071A1093004
:105AA00072A10A306DA10B306EA10C3075A10D30C2
:105AB00076A10E3079A10F307AA1103069A1113092
:105AC0006AA1123045A2143065A1153066A11D30BF
:105AD000A9A11E30AAA12130C3A22230C4A2233022
